{
  "contractName": "AdminsManager",
  "abi": [
    {
      "inputs": [],
      "stateMutability": "nonpayable",
      "type": "constructor"
    },
    {
      "anonymous": false,
      "inputs": [
        {
          "indexed": true,
          "internalType": "address",
          "name": "account",
          "type": "address"
        },
        {
          "indexed": false,
          "internalType": "uint256",
          "name": "groupId",
          "type": "uint256"
        }
      ],
      "name": "AdminAdded",
      "type": "event"
    },
    {
      "anonymous": false,
      "inputs": [
        {
          "indexed": true,
          "internalType": "address",
          "name": "account",
          "type": "address"
        },
        {
          "indexed": false,
          "internalType": "uint256",
          "name": "groupId",
          "type": "uint256"
        }
      ],
      "name": "AdminRemoved",
      "type": "event"
    },
    {
      "anonymous": false,
      "inputs": [
        {
          "indexed": false,
          "internalType": "uint256",
          "name": "registeredRecipientCount",
          "type": "uint256"
        },
        {
          "indexed": false,
          "internalType": "uint256",
          "name": "winningsPerRecipient",
          "type": "uint256"
        }
      ],
      "name": "CalculatedPot",
      "type": "event"
    },
    {
      "anonymous": false,
      "inputs": [
        {
          "indexed": false,
          "internalType": "address",
          "name": "newContract",
          "type": "address"
        }
      ],
      "name": "ContractUpgrade",
      "type": "event"
    },
    {
      "anonymous": false,
      "inputs": [
        {
          "indexed": true,
          "internalType": "address",
          "name": "account",
          "type": "address"
        },
        {
          "indexed": false,
          "internalType": "uint256",
          "name": "groupId",
          "type": "uint256"
        },
        {
          "indexed": false,
          "internalType": "uint256",
          "name": "amount",
          "type": "uint256"
        }
      ],
      "name": "ContributionMade",
      "type": "event"
    },
    {
      "anonymous": false,
      "inputs": [
        {
          "indexed": true,
          "internalType": "address",
          "name": "account",
          "type": "address"
        },
        {
          "indexed": false,
          "internalType": "uint256",
          "name": "groupId",
          "type": "uint256"
        }
      ],
      "name": "ContributorAdded",
      "type": "event"
    },
    {
      "anonymous": false,
      "inputs": [
        {
          "indexed": true,
          "internalType": "address",
          "name": "account",
          "type": "address"
        },
        {
          "indexed": false,
          "internalType": "uint256",
          "name": "groupId",
          "type": "uint256"
        }
      ],
      "name": "ContributorRemoved",
      "type": "event"
    },
    {
      "anonymous": false,
      "inputs": [
        {
          "indexed": true,
          "internalType": "address",
          "name": "account",
          "type": "address"
        },
        {
          "indexed": false,
          "internalType": "uint256",
          "name": "groupId",
          "type": "uint256"
        }
      ],
      "name": "EligibleRecipientAdded",
      "type": "event"
    },
    {
      "anonymous": false,
      "inputs": [
        {
          "indexed": true,
          "internalType": "address",
          "name": "account",
          "type": "address"
        },
        {
          "indexed": false,
          "internalType": "uint256",
          "name": "groupId",
          "type": "uint256"
        }
      ],
      "name": "EligibleRecipientRemoved",
      "type": "event"
    },
    {
      "anonymous": false,
      "inputs": [],
      "name": "EventClose",
      "type": "event"
    },
    {
      "anonymous": false,
      "inputs": [
        {
          "indexed": true,
          "internalType": "address",
          "name": "endedBy",
          "type": "address"
        },
        {
          "indexed": false,
          "internalType": "uint256",
          "name": "groupId",
          "type": "uint256"
        }
      ],
      "name": "EventEnded",
      "type": "event"
    },
    {
      "anonymous": false,
      "inputs": [
        {
          "indexed": true,
          "internalType": "address",
          "name": "startedBy",
          "type": "address"
        },
        {
          "indexed": false,
          "internalType": "uint256",
          "name": "groupId",
          "type": "uint256"
        }
      ],
      "name": "EventStarted",
      "type": "event"
    },
    {
      "anonymous": false,
      "inputs": [
        {
          "indexed": true,
          "internalType": "address",
          "name": "creator",
          "type": "address"
        },
        {
          "indexed": false,
          "internalType": "uint256",
          "name": "groupId",
          "type": "uint256"
        }
      ],
      "name": "GroupCreated",
      "type": "event"
    },
    {
      "anonymous": false,
      "inputs": [
        {
          "indexed": true,
          "internalType": "address",
          "name": "account",
          "type": "address"
        },
        {
          "indexed": false,
          "internalType": "uint256",
          "name": "groupId",
          "type": "uint256"
        }
      ],
      "name": "RecipientRegistered",
      "type": "event"
    },
    {
      "anonymous": false,
      "inputs": [
        {
          "indexed": true,
          "internalType": "address",
          "name": "endedBy",
          "type": "address"
        },
        {
          "indexed": false,
          "internalType": "uint256",
          "name": "groupId",
          "type": "uint256"
        }
      ],
      "name": "RegistrationEnded",
      "type": "event"
    },
    {
      "anonymous": false,
      "inputs": [],
      "name": "RegistrationOpen",
      "type": "event"
    },
    {
      "anonymous": false,
      "inputs": [
        {
          "indexed": false,
          "internalType": "address",
          "name": "from",
          "type": "address"
        },
        {
          "indexed": false,
          "internalType": "address",
          "name": "to",
          "type": "address"
        }
      ],
      "name": "Transfer",
      "type": "event"
    },
    {
      "anonymous": false,
      "inputs": [
        {
          "indexed": true,
          "internalType": "address",
          "name": "account",
          "type": "address"
        },
        {
          "indexed": false,
          "internalType": "uint256",
          "name": "groupId",
          "type": "uint256"
        }
      ],
      "name": "WinningsClaimed",
      "type": "event"
    },
    {
      "anonymous": false,
      "inputs": [],
      "name": "WinningsClaimingOpen",
      "type": "event"
    },
    {
      "inputs": [],
      "name": "ceoAddress",
      "outputs": [
        {
          "internalType": "address",
          "name": "",
          "type": "address"
        }
      ],
      "stateMutability": "view",
      "type": "function"
    },
    {
      "inputs": [],
      "name": "cfoAddress",
      "outputs": [
        {
          "internalType": "address",
          "name": "",
          "type": "address"
        }
      ],
      "stateMutability": "view",
      "type": "function"
    },
    {
      "inputs": [
        {
          "internalType": "uint256",
          "name": "groupId",
          "type": "uint256"
        }
      ],
      "name": "claimWinnings",
      "outputs": [],
      "stateMutability": "nonpayable",
      "type": "function"
    },
    {
      "inputs": [
        {
          "internalType": "uint256",
          "name": "groupId",
          "type": "uint256"
        }
      ],
      "name": "contributeToPot",
      "outputs": [],
      "stateMutability": "payable",
      "type": "function"
    },
    {
      "inputs": [],
      "name": "cooAddress",
      "outputs": [
        {
          "internalType": "address",
          "name": "",
          "type": "address"
        }
      ],
      "stateMutability": "view",
      "type": "function"
    },
    {
      "inputs": [
        {
          "internalType": "address",
          "name": "account",
          "type": "address"
        },
        {
          "internalType": "uint256",
          "name": "groupId",
          "type": "uint256"
        }
      ],
      "name": "isContributor",
      "outputs": [
        {
          "internalType": "bool",
          "name": "",
          "type": "bool"
        }
      ],
      "stateMutability": "view",
      "type": "function"
    },
    {
      "inputs": [
        {
          "internalType": "address",
          "name": "account",
          "type": "address"
        },
        {
          "internalType": "uint256",
          "name": "groupId",
          "type": "uint256"
        }
      ],
      "name": "isEligibleRecipient",
      "outputs": [
        {
          "internalType": "bool",
          "name": "",
          "type": "bool"
        }
      ],
      "stateMutability": "view",
      "type": "function"
    },
    {
      "inputs": [
        {
          "internalType": "address",
          "name": "account",
          "type": "address"
        },
        {
          "internalType": "uint256",
          "name": "groupId",
          "type": "uint256"
        }
      ],
      "name": "isRegisteredRecipient",
      "outputs": [
        {
          "internalType": "bool",
          "name": "",
          "type": "bool"
        }
      ],
      "stateMutability": "view",
      "type": "function"
    },
    {
      "inputs": [],
      "name": "pause",
      "outputs": [],
      "stateMutability": "nonpayable",
      "type": "function"
    },
    {
      "inputs": [],
      "name": "paused",
      "outputs": [
        {
          "internalType": "bool",
          "name": "",
          "type": "bool"
        }
      ],
      "stateMutability": "view",
      "type": "function"
    },
    {
      "inputs": [
        {
          "internalType": "uint256",
          "name": "groupId",
          "type": "uint256"
        }
      ],
      "name": "registerForEvent",
      "outputs": [],
      "stateMutability": "nonpayable",
      "type": "function"
    },
    {
      "inputs": [
        {
          "internalType": "uint256",
          "name": "groupId",
          "type": "uint256"
        }
      ],
      "name": "renounceContributor",
      "outputs": [],
      "stateMutability": "nonpayable",
      "type": "function"
    },
    {
      "inputs": [
        {
          "internalType": "address",
          "name": "_newCEO",
          "type": "address"
        }
      ],
      "name": "setCEO",
      "outputs": [],
      "stateMutability": "nonpayable",
      "type": "function"
    },
    {
      "inputs": [
        {
          "internalType": "address",
          "name": "_newCFO",
          "type": "address"
        }
      ],
      "name": "setCFO",
      "outputs": [],
      "stateMutability": "nonpayable",
      "type": "function"
    },
    {
      "inputs": [
        {
          "internalType": "address",
          "name": "_newCOO",
          "type": "address"
        }
      ],
      "name": "setCOO",
      "outputs": [],
      "stateMutability": "nonpayable",
      "type": "function"
    },
    {
      "inputs": [],
      "name": "unpause",
      "outputs": [],
      "stateMutability": "nonpayable",
      "type": "function"
    },
    {
      "inputs": [
        {
          "internalType": "address",
          "name": "account",
          "type": "address"
        },
        {
          "internalType": "uint256",
          "name": "groupId",
          "type": "uint256"
        }
      ],
      "name": "isAdmin",
      "outputs": [
        {
          "internalType": "bool",
          "name": "",
          "type": "bool"
        }
      ],
      "stateMutability": "view",
      "type": "function"
    },
    {
      "inputs": [
        {
          "internalType": "address",
          "name": "account",
          "type": "address"
        },
        {
          "internalType": "uint256",
          "name": "groupId",
          "type": "uint256"
        }
      ],
      "name": "addAdmin",
      "outputs": [],
      "stateMutability": "nonpayable",
      "type": "function"
    },
    {
      "inputs": [
        {
          "internalType": "address",
          "name": "account",
          "type": "address"
        },
        {
          "internalType": "uint256",
          "name": "groupId",
          "type": "uint256"
        }
      ],
      "name": "removeAdmin",
      "outputs": [],
      "stateMutability": "nonpayable",
      "type": "function"
    },
    {
      "inputs": [
        {
          "internalType": "uint256",
          "name": "groupId",
          "type": "uint256"
        }
      ],
      "name": "renounceAdmin",
      "outputs": [],
      "stateMutability": "nonpayable",
      "type": "function"
    },
    {
      "inputs": [
        {
          "internalType": "uint256",
          "name": "groupId",
          "type": "uint256"
        }
      ],
      "name": "readEventInfo",
      "outputs": [
        {
          "components": [
            {
              "internalType": "uint256",
              "name": "groupId",
              "type": "uint256"
            },
            {
              "internalType": "enum CrowdDropBase.EventState",
              "name": "currentState",
              "type": "uint8"
            },
            {
              "internalType": "uint256",
              "name": "startTime",
              "type": "uint256"
            },
            {
              "internalType": "uint256",
              "name": "registrationEndTime",
              "type": "uint256"
            },
            {
              "internalType": "uint256",
              "name": "endTime",
              "type": "uint256"
            },
            {
              "internalType": "uint256",
              "name": "registeredRecipientsCount",
              "type": "uint256"
            },
            {
              "internalType": "string",
              "name": "sponsorName",
              "type": "string"
            },
            {
              "internalType": "string",
              "name": "sponsorImageUrl",
              "type": "string"
            },
            {
              "internalType": "string",
              "name": "sponsorLinkToUrl",
              "type": "string"
            },
            {
              "internalType": "address",
              "name": "currentContributor",
              "type": "address"
            }
          ],
          "internalType": "struct CrowdDropBase.CrowdDropEvent",
          "name": "",
          "type": "tuple"
        }
      ],
      "stateMutability": "view",
      "type": "function"
    },
    {
      "inputs": [],
      "name": "createNewGroup",
      "outputs": [],
      "stateMutability": "nonpayable",
      "type": "function"
    },
    {
      "inputs": [
        {
          "internalType": "uint256",
          "name": "groupId",
          "type": "uint256"
        }
      ],
      "name": "startEvent",
      "outputs": [],
      "stateMutability": "nonpayable",
      "type": "function"
    },
    {
      "inputs": [
        {
          "internalType": "uint256",
          "name": "groupId",
          "type": "uint256"
        }
      ],
      "name": "closeEventRegistration",
      "outputs": [],
      "stateMutability": "nonpayable",
      "type": "function"
    },
    {
      "inputs": [
        {
          "internalType": "uint256",
          "name": "groupId",
          "type": "uint256"
        }
      ],
      "name": "endEvent",
      "outputs": [],
      "stateMutability": "nonpayable",
      "type": "function"
    },
    {
      "inputs": [
        {
          "internalType": "address",
          "name": "account",
          "type": "address"
        },
        {
          "internalType": "uint256",
          "name": "groupId",
          "type": "uint256"
        }
      ],
      "name": "addEligibleRecipient",
      "outputs": [],
      "stateMutability": "nonpayable",
      "type": "function"
    },
    {
      "inputs": [
        {
          "internalType": "address",
          "name": "account",
          "type": "address"
        },
        {
          "internalType": "uint256",
          "name": "groupId",
          "type": "uint256"
        }
      ],
      "name": "removeEligibleRecipient",
      "outputs": [],
      "stateMutability": "nonpayable",
      "type": "function"
    },
    {
      "inputs": [
        {
          "internalType": "address",
          "name": "account",
          "type": "address"
        },
        {
          "internalType": "uint256",
          "name": "groupId",
          "type": "uint256"
        }
      ],
      "name": "addContributor",
      "outputs": [],
      "stateMutability": "nonpayable",
      "type": "function"
    },
    {
      "inputs": [
        {
          "internalType": "address",
          "name": "account",
          "type": "address"
        },
        {
          "internalType": "uint256",
          "name": "groupId",
          "type": "uint256"
        }
      ],
      "name": "removeContributor",
      "outputs": [],
      "stateMutability": "nonpayable",
      "type": "function"
    }
  ],
  "bytecode": "0x60806040526000600260146101000a81548160ff021916908315150217905550600560035534801561003057600080fd5b50614911806100406000396000f3fe608060405260043610620001ee5760003560e01c8063785142be116200010f578063ab4e194511620000a3578063e320d5e7116200006d578063e320d5e7146200067f578063e33db42614620006ad578063e62092be14620006f1578063e82f24e0146200073557620001ee565b8063ab4e194514620005c5578063b047fb5014620005f3578063c6e0ddfa1462000623578063e0bd7d15146200065157620001ee565b80638182aaf211620000e55780638182aaf2146200051f5780638456cb5914620005635780639055bdad146200057d578063a59a6953146200059757620001ee565b8063785142be146200047f5780637d837ce514620004ad5780637fcb29c914620004f157620001ee565b80633f4ba83a11620001875780634f1ef03c116200015d5780634f1ef03c14620003af5780635c975abb14620003dd5780635e82c1fc146200040d578063677bd9ff146200045157620001ee565b80633f4ba83a1462000339578063406db84314620003535780634e0a3379146200038157620001ee565b806327d7874c11620001c957806327d7874c14620002815780632ba73c1514620002af57806330bb011514620002dd578063330a347b146200030b57620001ee565b80630519ce7914620001f35780630a0f8168146200022357806315891ff41462000253575b600080fd5b3480156200020057600080fd5b506200020b62000755565b6040516200021a919062002d0d565b60405180910390f35b3480156200023057600080fd5b506200023b6200077b565b6040516200024a919062002d0d565b60405180910390f35b3480156200026057600080fd5b506200027f6004803603810190620002799190620029af565b6200079f565b005b3480156200028e57600080fd5b50620002ad6004803603810190620002a7919062002983565b6200088f565b005b348015620002bc57600080fd5b50620002db6004803603810190620002d5919062002983565b62000966565b005b348015620002ea57600080fd5b50620003096004803603810190620003039190620029f0565b62000a3e565b005b3480156200031857600080fd5b50620003376004803603810190620003319190620029f0565b62000a65565b005b3480156200034657600080fd5b506200035162000d7f565b005b3480156200036057600080fd5b506200037f6004803603810190620003799190620029f0565b62000e0f565b005b3480156200038e57600080fd5b50620003ad6004803603810190620003a7919062002983565b62000fa0565b005b348015620003bc57600080fd5b50620003db6004803603810190620003d59190620029f0565b62001078565b005b348015620003ea57600080fd5b50620003f5620010ba565b60405162000404919062002d82565b60405180910390f35b3480156200041a57600080fd5b50620004396004803603810190620004339190620029af565b620010cd565b60405162000448919062002d82565b60405180910390f35b3480156200045e57600080fd5b506200047d6004803603810190620004779190620029f0565b62001157565b005b3480156200048c57600080fd5b50620004ab6004803603810190620004a59190620029f0565b6200127f565b005b348015620004ba57600080fd5b50620004d96004803603810190620004d39190620029af565b620016d0565b604051620004e8919062002d82565b60405180910390f35b348015620004fe57600080fd5b506200051d6004803603810190620005179190620029af565b6200175a565b005b3480156200052c57600080fd5b506200054b6004803603810190620005459190620029af565b620017c5565b6040516200055a919062002d82565b60405180910390f35b3480156200057057600080fd5b506200057b6200184f565b005b3480156200058a57600080fd5b506200059562001992565b005b348015620005a457600080fd5b50620005c36004803603810190620005bd9190620029f0565b62001c74565b005b348015620005d257600080fd5b50620005f16004803603810190620005eb9190620029af565b62001d7b565b005b3480156200060057600080fd5b506200060b62001e6b565b6040516200061a919062002d0d565b60405180910390f35b3480156200063057600080fd5b506200064f6004803603810190620006499190620029af565b62001e91565b005b3480156200065e57600080fd5b506200067d6004803603810190620006779190620029af565b62001efc565b005b3480156200068c57600080fd5b50620006ab6004803603810190620006a59190620029af565b62001f98565b005b348015620006ba57600080fd5b50620006d96004803603810190620006d39190620029f0565b62002034565b604051620006e8919062002d9f565b60405180910390f35b348015620006fe57600080fd5b506200071d6004803603810190620007179190620029af565b6200235b565b6040516200072c919062002d82565b60405180910390f35b6200075360048036038101906200074d9190620029f0565b620023ca565b005b600160009054906101000a900473ffffffffffffffffffffffffffffffffffffffff1681565b60008054906101000a900473ffffffffffffffffffffffffffffffffffffffff1681565b80620007ac33826200235b565b620007b657600080fd5b600260149054906101000a900460ff1615620007d157600080fd5b60006008600084815260200190815260200160002060008573ffffffffffffffffffffffffffffffffffffffff1673ffffffffffffffffffffffffffffffffffffffff16815260200190815260200160002060006101000a81548160ff0219169083151502179055508273ffffffffffffffffffffffffffffffffffffffff167f1af6d16168d33745872119540d28858eed156c5f265206bbf1344fda39a93a338360405162000882919062002dc3565b60405180910390a2505050565b60008054906101000a900473ffffffffffffffffffffffffffffffffffffffff1673ffffffffffffffffffffffffffffffffffffffff163373ffffffffffffffffffffffffffffffffffffffff1614620008e857600080fd5b600073ffffffffffffffffffffffffffffffffffffffff168173ffffffffffffffffffffffffffffffffffffffff1614156200092357600080fd5b806000806101000a81548173ffffffffffffffffffffffffffffffffffffffff021916908373ffffffffffffffffffffffffffffffffffffffff16021790555050565b60008054906101000a900473ffffffffffffffffffffffffffffffffffffffff1673ffffffffffffffffffffffffffffffffffffffff163373ffffffffffffffffffffffffffffffffffffffff1614620009bf57600080fd5b600073ffffffffffffffffffffffffffffffffffffffff168173ffffffffffffffffffffffffffffffffffffffff161415620009fa57600080fd5b80600260006101000a81548173ffffffffffffffffffffffffffffffffffffffff021916908373ffffffffffffffffffffffffffffffffffffffff16021790555050565b8062000a4b33826200235b565b62000a5557600080fd5b62000a61338362002452565b5050565b8062000a7233826200235b565b8062000acb5750600260009054906101000a900473ffffffffffffffffffffffffffffffffffffffff1673ffffffffffffffffffffffffffffffffffffffff163373ffffffffffffffffffffffffffffffffffffffff16145b62000ad557600080fd5b600260149054906101000a900460ff161562000af057600080fd5b42600460008481526020019081526020016000206004018190555060036004600084815260200190815260200160002060010160006101000a81548160ff0219169083600381111562000b6c577f4e487b7100000000000000000000000000000000000000000000000000000000600052602160045260246000fd5b0217905550600560008381526020019081526020016000206004600084815260200190815260200160002090806001815401808255809150506001900390600052602060002090600a0201600090919091909150600082015481600001556001820160009054906101000a900460ff168160010160006101000a81548160ff0219169083600381111562000c29577f4e487b7100000000000000000000000000000000000000000000000000000000600052602160045260246000fd5b021790555060028201548160020155600382015481600301556004820154816004015560058201548160050155600682018160060190805462000c6c9062003016565b62000c7992919062002746565b50600782018160070190805462000c909062003016565b62000c9d92919062002746565b50600882018160080190805462000cb49062003016565b62000cc192919062002746565b506009820160009054906101000a900473ffffffffffffffffffffffffffffffffffffffff168160090160006101000a81548173ffffffffffffffffffffffffffffffffffffffff021916908373ffffffffffffffffffffffffffffffffffffffff16021790555050503373ffffffffffffffffffffffffffffffffffffffff167f6f45a19e8850c727d0de9f32e0d8691324a9a74ffb4347652e6404138b1d81658360405162000d73919062002dc3565b60405180910390a25050565b60008054906101000a900473ffffffffffffffffffffffffffffffffffffffff1673ffffffffffffffffffffffffffffffffffffffff163373ffffffffffffffffffffffffffffffffffffffff161462000dd857600080fd5b600260149054906101000a900460ff1662000df257600080fd5b6000600260146101000a81548160ff021916908315150217905550565b8062000e1c3382620010cd565b62000e2657600080fd5b600260149054906101000a900460ff161562000e4157600080fd5b60016009600084815260200190815260200160002060003373ffffffffffffffffffffffffffffffffffffffff1673ffffffffffffffffffffffffffffffffffffffff16815260200190815260200160002060006101000a81548160ff021916908315150217905550600a6000838152602001908152602001600020339080600181540180825580915050600190039060005260206000200160009091909190916101000a81548173ffffffffffffffffffffffffffffffffffffffff021916908373ffffffffffffffffffffffffffffffffffffffff16021790555060046000838152602001908152602001600020600501600081548092919062000f47906200306a565b91905055503373ffffffffffffffffffffffffffffffffffffffff167f0695e999be8100bdb5bee8612337296508d527eae78c65b8f170eacb5a3b439d8360405162000f94919062002dc3565b60405180910390a25050565b60008054906101000a900473ffffffffffffffffffffffffffffffffffffffff1673ffffffffffffffffffffffffffffffffffffffff163373ffffffffffffffffffffffffffffffffffffffff161462000ff957600080fd5b600073ffffffffffffffffffffffffffffffffffffffff168173ffffffffffffffffffffffffffffffffffffffff1614156200103457600080fd5b80600160006101000a81548173ffffffffffffffffffffffffffffffffffffffff021916908373ffffffffffffffffffffffffffffffffffffffff16021790555050565b80620010853382620017c5565b6200108f57600080fd5b600260149054906101000a900460ff1615620010aa57600080fd5b620010b633836200250f565b5050565b600260149054906101000a900460ff1681565b6000600260149054906101000a900460ff1615620010ea57600080fd5b600115156008600084815260200190815260200160002060008573ffffffffffffffffffffffffffffffffffffffff1673ffffffffffffffffffffffffffffffffffffffff16815260200190815260200160002060009054906101000a900460ff16151514905092915050565b80620011643382620016d0565b6200116e57600080fd5b600260149054906101000a900460ff16156200118957600080fd5b600b600083815260200190815260200160002060009054906101000a900473ffffffffffffffffffffffffffffffffffffffff1673ffffffffffffffffffffffffffffffffffffffff166319165587336040518263ffffffff1660e01b8152600401620011f7919062002d2a565b600060405180830381600087803b1580156200121257600080fd5b505af115801562001227573d6000803e3d6000fd5b505050503373ffffffffffffffffffffffffffffffffffffffff167f1a31e733a172afcf46074b3106c17f0c298e226442682a03c1e99ce256139ec28360405162001273919062002dc3565b60405180910390a25050565b806200128c33826200235b565b6200129657600080fd5b600260149054906101000a900460ff1615620012b157600080fd5b426004600084815260200190815260200160002060030181905550600160009054906101000a900473ffffffffffffffffffffffffffffffffffffffff1673ffffffffffffffffffffffffffffffffffffffff166108fc6064600354476200131a919062002ed8565b62001326919062002ea0565b9081150290604051600060405180830381858888f1935050505015801562001352573d6000803e3d6000fd5b506000600460008481526020019081526020016000206005015467ffffffffffffffff811115620013ac577f4e487b7100000000000000000000000000000000000000000000000000000000600052604160045260246000fd5b604051908082528060200260200182016040528015620013db5781602001602082028036833780820191505090505b50905060005b60046000858152602001908152602001600020600501548110156200145e5760018282815181106200143c577f4e487b7100000000000000000000000000000000000000000000000000000000600052603260045260246000fd5b602002602001018181525050808062001455906200306a565b915050620013e1565b50600a6000848152602001908152602001600020816040516200148190620027de565b6200148e92919062002d47565b604051809103906000f080158015620014ab573d6000803e3d6000fd5b50600b600085815260200190815260200160002060006101000a81548173ffffffffffffffffffffffffffffffffffffffff021916908373ffffffffffffffffffffffffffffffffffffffff16021790555060026004600085815260200190815260200160002060010160006101000a81548160ff021916908360038111156200155e577f4e487b7100000000000000000000000000000000000000000000000000000000600052602160045260246000fd5b02179055506000600b600085815260200190815260200160002060009054906101000a900473ffffffffffffffffffffffffffffffffffffffff1673ffffffffffffffffffffffffffffffffffffffff16633a98ef396040518163ffffffff1660e01b815260040160206040518083038186803b158015620015df57600080fd5b505afa158015620015f4573d6000803e3d6000fd5b505050506040513d601f19601f820116820180604052508101906200161a919062002a1c565b4762001627919062002ea0565b90507f80bb271e4cd4fd0e4cc21617a1a4cfe46af15e974bb329a92e7c15a69665158c6004600086815260200190815260200160002060050154826040516200167292919062002de0565b60405180910390a13373ffffffffffffffffffffffffffffffffffffffff167fef898a6941c945450e9bbdad4a76fcd0f51f42f7e251fddcb1e5479ba786d5e485604051620016c2919062002dc3565b60405180910390a250505050565b6000600260149054906101000a900460ff1615620016ed57600080fd5b600115156009600084815260200190815260200160002060008573ffffffffffffffffffffffffffffffffffffffff1673ffffffffffffffffffffffffffffffffffffffff16815260200190815260200160002060009054906101000a900460ff16151514905092915050565b600260009054906101000a900473ffffffffffffffffffffffffffffffffffffffff1673ffffffffffffffffffffffffffffffffffffffff163373ffffffffffffffffffffffffffffffffffffffff1614620017b557600080fd5b620017c18282620025cc565b5050565b6000600260149054906101000a900460ff1615620017e257600080fd5b600115156007600084815260200190815260200160002060008573ffffffffffffffffffffffffffffffffffffffff1673ffffffffffffffffffffffffffffffffffffffff16815260200190815260200160002060009054906101000a900460ff16151514905092915050565b600260009054906101000a900473ffffffffffffffffffffffffffffffffffffffff1673ffffffffffffffffffffffffffffffffffffffff163373ffffffffffffffffffffffffffffffffffffffff161480620018f7575060008054906101000a900473ffffffffffffffffffffffffffffffffffffffff1673ffffffffffffffffffffffffffffffffffffffff163373ffffffffffffffffffffffffffffffffffffffff16145b80620019505750600160009054906101000a900473ffffffffffffffffffffffffffffffffffffffff1673ffffffffffffffffffffffffffffffffffffffff163373ffffffffffffffffffffffffffffffffffffffff16145b6200195a57600080fd5b600260149054906101000a900460ff16156200197557600080fd5b6001600260146101000a81548160ff021916908315150217905550565b600260009054906101000a900473ffffffffffffffffffffffffffffffffffffffff1673ffffffffffffffffffffffffffffffffffffffff163373ffffffffffffffffffffffffffffffffffffffff1614620019ed57600080fd5b600260149054906101000a900460ff161562001a0857600080fd5b6000434060001c905060006040518061014001604052808381526020016000600381111562001a60577f4e487b7100000000000000000000000000000000000000000000000000000000600052602160045260246000fd5b815260200142815260200142815260200142815260200160008152602001604051806020016040528060008152508152602001604051806020016040528060008152508152602001604051806020016040528060008152508152602001600073ffffffffffffffffffffffffffffffffffffffff16815250905080600460008481526020019081526020016000206000820151816000015560208201518160010160006101000a81548160ff0219169083600381111562001b4a577f4e487b7100000000000000000000000000000000000000000000000000000000600052602160045260246000fd5b021790555060408201518160020155606082015181600301556080820151816004015560a0820151816005015560c082015181600601908051906020019062001b95929190620027ec565b5060e082015181600701908051906020019062001bb4929190620027ec565b5061010082015181600801908051906020019062001bd4929190620027ec565b506101208201518160090160006101000a81548173ffffffffffffffffffffffffffffffffffffffff021916908373ffffffffffffffffffffffffffffffffffffffff1602179055509050503373ffffffffffffffffffffffffffffffffffffffff167f3482e3d6d38a18835a6ad59afad8098300ce9f907925e4be71126d7b43dc803d8360405162001c68919062002dc3565b60405180910390a25050565b8062001c8133826200235b565b62001c8b57600080fd5b600260149054906101000a900460ff161562001ca657600080fd5b60016004600084815260200190815260200160002060010160006101000a81548160ff0219169083600381111562001d07577f4e487b7100000000000000000000000000000000000000000000000000000000600052602160045260246000fd5b02179055504260046000848152602001908152602001600020600201819055503373ffffffffffffffffffffffffffffffffffffffff167ff77c6f27499b698205f54058c2914a340e1300c2bc0d9a819e7aebfbaabbbb938360405162001d6f919062002dc3565b60405180910390a25050565b600260149054906101000a900460ff161562001d9657600080fd5b8062001da333826200235b565b62001dad57600080fd5b60016008600084815260200190815260200160002060008573ffffffffffffffffffffffffffffffffffffffff1673ffffffffffffffffffffffffffffffffffffffff16815260200190815260200160002060006101000a81548160ff0219169083151502179055508273ffffffffffffffffffffffffffffffffffffffff167f46b8357d30dedd734a71d059a385f46b6e667bff20233f907477760207f889658360405162001e5e919062002dc3565b60405180910390a2505050565b600260009054906101000a900473ffffffffffffffffffffffffffffffffffffffff1681565b600260009054906101000a900473ffffffffffffffffffffffffffffffffffffffff1673ffffffffffffffffffffffffffffffffffffffff163373ffffffffffffffffffffffffffffffffffffffff161462001eec57600080fd5b62001ef8828262002452565b5050565b8062001f0933826200235b565b8062001f625750600260009054906101000a900473ffffffffffffffffffffffffffffffffffffffff1673ffffffffffffffffffffffffffffffffffffffff163373ffffffffffffffffffffffffffffffffffffffff16145b62001f6c57600080fd5b600260149054906101000a900460ff161562001f8757600080fd5b62001f93838362002689565b505050565b8062001fa533826200235b565b8062001ffe5750600260009054906101000a900473ffffffffffffffffffffffffffffffffffffffff1673ffffffffffffffffffffffffffffffffffffffff163373ffffffffffffffffffffffffffffffffffffffff16145b6200200857600080fd5b600260149054906101000a900460ff16156200202357600080fd5b6200202f83836200250f565b505050565b6200203e6200287d565b816200204b33826200235b565b6200205557600080fd5b6004600084815260200190815260200160002060405180610140016040529081600082015481526020016001820160009054906101000a900460ff166003811115620020ca577f4e487b7100000000000000000000000000000000000000000000000000000000600052602160045260246000fd5b600381111562002103577f4e487b7100000000000000000000000000000000000000000000000000000000600052602160045260246000fd5b815260200160028201548152602001600382015481526020016004820154815260200160058201548152602001600682018054620021419062003016565b80601f01602080910402602001604051908101604052809291908181526020018280546200216f9062003016565b8015620021c05780601f106200219457610100808354040283529160200191620021c0565b820191906000526020600020905b815481529060010190602001808311620021a257829003601f168201915b50505050508152602001600782018054620021db9062003016565b80601f0160208091040260200160405190810160405280929190818152602001828054620022099062003016565b80156200225a5780601f106200222e576101008083540402835291602001916200225a565b820191906000526020600020905b8154815290600101906020018083116200223c57829003601f168201915b50505050508152602001600882018054620022759062003016565b80601f0160208091040260200160405190810160405280929190818152602001828054620022a39062003016565b8015620022f45780601f10620022c857610100808354040283529160200191620022f4565b820191906000526020600020905b815481529060010190602001808311620022d657829003601f168201915b505050505081526020016009820160009054906101000a900473ffffffffffffffffffffffffffffffffffffffff1673ffffffffffffffffffffffffffffffffffffffff1673ffffffffffffffffffffffffffffffffffffffff1681525050915050919050565b6000600115156006600084815260200190815260200160002060008573ffffffffffffffffffffffffffffffffffffffff1673ffffffffffffffffffffffffffffffffffffffff16815260200190815260200160002060009054906101000a900460ff16151514905092915050565b80620023d73382620017c5565b620023e157600080fd5b600260149054906101000a900460ff1615620023fc57600080fd5b3373ffffffffffffffffffffffffffffffffffffffff167f5dc1fe5ab986a852c4eda8e8bb94247d13307065c593fb83f1a09be27367938283346040516200244692919062002de0565b60405180910390a25050565b60006006600083815260200190815260200160002060008473ffffffffffffffffffffffffffffffffffffffff1673ffffffffffffffffffffffffffffffffffffffff16815260200190815260200160002060006101000a81548160ff0219169083151502179055508173ffffffffffffffffffffffffffffffffffffffff167fa0726c73cf6ad18ddb855ba65d1ddd4d7fd37d320f4e52f6b154c13d386f5fd98260405162002503919062002dc3565b60405180910390a25050565b60006007600083815260200190815260200160002060008473ffffffffffffffffffffffffffffffffffffffff1673ffffffffffffffffffffffffffffffffffffffff16815260200190815260200160002060006101000a81548160ff0219169083151502179055508173ffffffffffffffffffffffffffffffffffffffff167fda111d7eb5d5b2033c4ffad00cd7cd42f45af2813bee1a69e65f26d90ea15f0b82604051620025c0919062002dc3565b60405180910390a25050565b60016006600083815260200190815260200160002060008473ffffffffffffffffffffffffffffffffffffffff1673ffffffffffffffffffffffffffffffffffffffff16815260200190815260200160002060006101000a81548160ff0219169083151502179055508173ffffffffffffffffffffffffffffffffffffffff167f723c2b747529ca7f5eb53a74808f4a8b9bf264f0fc450fd904900151da74548a826040516200267d919062002dc3565b60405180910390a25050565b60016007600083815260200190815260200160002060008473ffffffffffffffffffffffffffffffffffffffff1673ffffffffffffffffffffffffffffffffffffffff16815260200190815260200160002060006101000a81548160ff0219169083151502179055508173ffffffffffffffffffffffffffffffffffffffff167f5fd6d0b7e707fe344bd2a1887f9d0eeea8bfcac6f339ba4200e74f0647f101c0826040516200273a919062002dc3565b60405180910390a25050565b828054620027549062003016565b90600052602060002090601f016020900481019282620027785760008555620027cb565b82601f106200278b5780548555620027cb565b82800160010185558215620027cb57600052602060002091601f016020900482015b82811115620027ca578254825591600101919060010190620027ad565b5b509050620027da91906200291f565b5090565b6116e980620031f383390190565b828054620027fa9062003016565b90600052602060002090601f0160209004810192826200281e57600085556200286a565b82601f106200283957805160ff19168380011785556200286a565b828001600101855582156200286a579182015b82811115620028695782518255916020019190600101906200284c565b5b5090506200287991906200291f565b5090565b6040518061014001604052806000815260200160006003811115620028cb577f4e487b7100000000000000000000000000000000000000000000000000000000600052602160045260246000fd5b815260200160008152602001600081526020016000815260200160008152602001606081526020016060815260200160608152602001600073ffffffffffffffffffffffffffffffffffffffff1681525090565b5b808211156200293a57600081600090555060010162002920565b5090565b6000813590506200294f81620031be565b92915050565b6000813590506200296681620031d8565b92915050565b6000815190506200297d81620031d8565b92915050565b6000602082840312156200299657600080fd5b6000620029a6848285016200293e565b91505092915050565b60008060408385031215620029c357600080fd5b6000620029d3858286016200293e565b9250506020620029e68582860162002955565b9150509250929050565b60006020828403121562002a0357600080fd5b600062002a138482850162002955565b91505092915050565b60006020828403121562002a2f57600080fd5b600062002a3f848285016200296c565b91505092915050565b600062002a56838362002a8d565b60208301905092915050565b600062002a70838362002ceb565b60208301905092915050565b62002a878162002f6d565b82525050565b62002a988162002f59565b82525050565b62002aa98162002f59565b82525050565b600062002abc8262002e32565b62002ac8818562002e6d565b935062002ad58362002e0d565b8060005b8381101562002b155762002aed8262003174565b62002af9888262002a48565b975062002b068362002e53565b92505060018101905062002ad9565b5085935050505092915050565b600062002b2f8262002e3d565b62002b3b818562002e7e565b935062002b488362002e22565b8060005b8381101562002b7f57815162002b63888262002a62565b975062002b708362002e60565b92505060018101905062002b4c565b5085935050505092915050565b62002b978162002f81565b82525050565b62002ba88162002fcc565b82525050565b600062002bbb8262002e48565b62002bc7818562002e8f565b935062002bd981856020860162002fe0565b62002be48162003189565b840191505092915050565b60006101408301600083015162002c0a600086018262002ceb565b50602083015162002c1f602086018262002b9d565b50604083015162002c34604086018262002ceb565b50606083015162002c49606086018262002ceb565b50608083015162002c5e608086018262002ceb565b5060a083015162002c7360a086018262002ceb565b5060c083015184820360c086015262002c8d828262002bae565b91505060e083015184820360e086015262002ca9828262002bae565b91505061010083015184820361010086015262002cc7828262002bae565b91505061012083015162002ce061012086018262002a8d565b508091505092915050565b62002cf68162002fc2565b82525050565b62002d078162002fc2565b82525050565b600060208201905062002d24600083018462002a9e565b92915050565b600060208201905062002d41600083018462002a7c565b92915050565b6000604082019050818103600083015262002d63818562002aaf565b9050818103602083015262002d79818462002b22565b90509392505050565b600060208201905062002d99600083018462002b8c565b92915050565b6000602082019050818103600083015262002dbb818462002bef565b905092915050565b600060208201905062002dda600083018462002cfc565b92915050565b600060408201905062002df7600083018562002cfc565b62002e06602083018462002cfc565b9392505050565b60008190508160005260206000209050919050565b6000819050602082019050919050565b600081549050919050565b600081519050919050565b600081519050919050565b6000600182019050919050565b6000602082019050919050565b600082825260208201905092915050565b600082825260208201905092915050565b600082825260208201905092915050565b600062002ead8262002fc2565b915062002eba8362002fc2565b92508262002ecd5762002ecc620030e7565b5b828204905092915050565b600062002ee58262002fc2565b915062002ef28362002fc2565b9250817fffffffffffffffffffffffffffffffffffffffffffffffffffffffffffffffff048311821515161562002f2e5762002f2d620030b8565b5b828202905092915050565b600073ffffffffffffffffffffffffffffffffffffffff82169050919050565b600062002f668262002fa2565b9050919050565b600062002f7a8262002fa2565b9050919050565b60008115159050919050565b600081905062002f9d82620031a7565b919050565b600073ffffffffffffffffffffffffffffffffffffffff82169050919050565b6000819050919050565b600062002fd98262002f8d565b9050919050565b60005b838110156200300057808201518184015260208101905062002fe3565b8381111562003010576000848401525b50505050565b600060028204905060018216806200302f57607f821691505b6020821081141562003046576200304562003145565b5b50919050565b6000620030636200305d836200319a565b62002f39565b9050919050565b6000620030778262002fc2565b91507fffffffffffffffffffffffffffffffffffffffffffffffffffffffffffffffff821415620030ad57620030ac620030b8565b5b600182019050919050565b7f4e487b7100000000000000000000000000000000000000000000000000000000600052601160045260246000fd5b7f4e487b7100000000000000000000000000000000000000000000000000000000600052601260045260246000fd5b7f4e487b7100000000000000000000000000000000000000000000000000000000600052602160045260246000fd5b7f4e487b7100000000000000000000000000000000000000000000000000000000600052602260045260246000fd5b60006200318282546200304c565b9050919050565b6000601f19601f8301169050919050565b60008160001c9050919050565b60048110620031bb57620031ba62003116565b5b50565b620031c98162002f59565b8114620031d557600080fd5b50565b620031e38162002fc2565b8114620031ef57600080fd5b5056fe6080604052604051620016e9380380620016e9833981810160405281019062000029919062000523565b805182511462000070576040517f08c379a00000000000000000000000000000000000000000000000000000000081526004016200006790620007c3565b60405180910390fd5b6000825111620000b7576040517f08c379a0000000000000000000000000000000000000000000000000000000008152600401620000ae9062000807565b60405180910390fd5b60005b82518110156200016e576200015883828151811062000102577f4e487b7100000000000000000000000000000000000000000000000000000000600052603260045260246000fd5b602002602001015183838151811062000144577f4e487b7100000000000000000000000000000000000000000000000000000000600052603260045260246000fd5b60200260200101516200017760201b60201c565b8080620001659062000989565b915050620000ba565b50505062000a69565b600073ffffffffffffffffffffffffffffffffffffffff168273ffffffffffffffffffffffffffffffffffffffff161415620001ea576040517f08c379a0000000000000000000000000000000000000000000000000000000008152600401620001e190620007a1565b60405180910390fd5b6000811162000230576040517f08c379a0000000000000000000000000000000000000000000000000000000008152600401620002279062000829565b60405180910390fd5b6000600260008473ffffffffffffffffffffffffffffffffffffffff1673ffffffffffffffffffffffffffffffffffffffff1681526020019081526020016000205414620002b5576040517f08c379a0000000000000000000000000000000000000000000000000000000008152600401620002ac90620007e5565b60405180910390fd5b6004829080600181540180825580915050600190039060005260206000200160009091909190916101000a81548173ffffffffffffffffffffffffffffffffffffffff021916908373ffffffffffffffffffffffffffffffffffffffff16021790555080600260008473ffffffffffffffffffffffffffffffffffffffff1673ffffffffffffffffffffffffffffffffffffffff16815260200190815260200160002081905550806000546200036c9190620008ee565b6000819055507f40c340f65e17194d14ddddb073d3c9f888e3cb52b5aae0c6c7706b4fbc905fac8282604051620003a592919062000774565b60405180910390a15050565b6000620003c8620003c2846200087f565b6200084b565b90508083825260208201905082856020860282011115620003e857600080fd5b60005b858110156200041c57816200040188826200049b565b845260208401935060208301925050600181019050620003eb565b5050509392505050565b60006200043d6200043784620008ae565b6200084b565b905080838252602082019050828560208602820111156200045d57600080fd5b60005b858110156200049157816200047688826200050c565b84526020840193506020830192505060018101905062000460565b5050509392505050565b600081519050620004ac8162000a35565b92915050565b600082601f830112620004c457600080fd5b8151620004d6848260208601620003b1565b91505092915050565b600082601f830112620004f157600080fd5b81516200050384826020860162000426565b91505092915050565b6000815190506200051d8162000a4f565b92915050565b600080604083850312156200053757600080fd5b600083015167ffffffffffffffff8111156200055257600080fd5b6200056085828601620004b2565b925050602083015167ffffffffffffffff8111156200057e57600080fd5b6200058c85828601620004df565b9150509250929050565b620005a1816200094b565b82525050565b6000620005b6602c83620008dd565b91507f5061796d656e7453706c69747465723a206163636f756e74206973207468652060008301527f7a65726f206164647265737300000000000000000000000000000000000000006020830152604082019050919050565b60006200061e603283620008dd565b91507f5061796d656e7453706c69747465723a2070617965657320616e64207368617260008301527f6573206c656e677468206d69736d6174636800000000000000000000000000006020830152604082019050919050565b600062000686602b83620008dd565b91507f5061796d656e7453706c69747465723a206163636f756e7420616c726561647960008301527f20686173207368617265730000000000000000000000000000000000000000006020830152604082019050919050565b6000620006ee601a83620008dd565b91507f5061796d656e7453706c69747465723a206e6f207061796565730000000000006000830152602082019050919050565b600062000730601d83620008dd565b91507f5061796d656e7453706c69747465723a207368617265732061726520300000006000830152602082019050919050565b6200076e816200097f565b82525050565b60006040820190506200078b600083018562000596565b6200079a602083018462000763565b9392505050565b60006020820190508181036000830152620007bc81620005a7565b9050919050565b60006020820190508181036000830152620007de816200060f565b9050919050565b60006020820190508181036000830152620008008162000677565b9050919050565b600060208201905081810360008301526200082281620006df565b9050919050565b60006020820190508181036000830152620008448162000721565b9050919050565b6000604051905081810181811067ffffffffffffffff8211171562000875576200087462000a06565b5b8060405250919050565b600067ffffffffffffffff8211156200089d576200089c62000a06565b5b602082029050602081019050919050565b600067ffffffffffffffff821115620008cc57620008cb62000a06565b5b602082029050602081019050919050565b600082825260208201905092915050565b6000620008fb826200097f565b915062000908836200097f565b9250827fffffffffffffffffffffffffffffffffffffffffffffffffffffffffffffffff0382111562000940576200093f620009d7565b5b828201905092915050565b600062000958826200095f565b9050919050565b600073ffffffffffffffffffffffffffffffffffffffff82169050919050565b6000819050919050565b600062000996826200097f565b91507fffffffffffffffffffffffffffffffffffffffffffffffffffffffffffffffff821415620009cc57620009cb620009d7565b5b600182019050919050565b7f4e487b7100000000000000000000000000000000000000000000000000000000600052601160045260246000fd5b7f4e487b7100000000000000000000000000000000000000000000000000000000600052604160045260246000fd5b62000a40816200094b565b811462000a4c57600080fd5b50565b62000a5a816200097f565b811462000a6657600080fd5b50565b610c708062000a796000396000f3fe6080604052600436106100595760003560e01c806319165587146100a55780633a98ef39146100ce5780638b83209b146100f95780639852595c14610136578063ce7c2ac214610173578063e33b7de3146101b0576100a0565b366100a0577f6ef95f06320e7a25a04a175ca677b7052bdd97131872c2192525a629f51be7706100876101db565b3460405161009692919061091e565b60405180910390a1005b600080fd5b3480156100b157600080fd5b506100cc60048036038101906100c791906106ba565b6101e3565b005b3480156100da57600080fd5b506100e361044b565b6040516100f091906109c7565b60405180910390f35b34801561010557600080fd5b50610120600480360381019061011b91906106e3565b610454565b60405161012d91906108da565b60405180910390f35b34801561014257600080fd5b5061015d60048036038101906101589190610691565b6104c2565b60405161016a91906109c7565b60405180910390f35b34801561017f57600080fd5b5061019a60048036038101906101959190610691565b61050b565b6040516101a791906109c7565b60405180910390f35b3480156101bc57600080fd5b506101c5610554565b6040516101d291906109c7565b60405180910390f35b600033905090565b6000600260008373ffffffffffffffffffffffffffffffffffffffff1673ffffffffffffffffffffffffffffffffffffffff1681526020019081526020016000205411610265576040517f08c379a000000000000000000000000000000000000000000000000000000000815260040161025c90610947565b60405180910390fd5b60006001544761027591906109fe565b90506000600360008473ffffffffffffffffffffffffffffffffffffffff1673ffffffffffffffffffffffffffffffffffffffff16815260200190815260200160002054600054600260008673ffffffffffffffffffffffffffffffffffffffff1673ffffffffffffffffffffffffffffffffffffffff16815260200190815260200160002054846103079190610a85565b6103119190610a54565b61031b9190610adf565b90506000811415610361576040517f08c379a0000000000000000000000000000000000000000000000000000000008152600401610358906109a7565b60405180910390fd5b80600360008573ffffffffffffffffffffffffffffffffffffffff1673ffffffffffffffffffffffffffffffffffffffff168152602001908152602001600020546103ac91906109fe565b600360008573ffffffffffffffffffffffffffffffffffffffff1673ffffffffffffffffffffffffffffffffffffffff16815260200190815260200160002081905550806001546103fd91906109fe565b60018190555061040d838261055e565b7fdf20fd1e76bc69d672e4814fafb2c449bba3a5369d8359adf9e05e6fde87b056838260405161043e9291906108f5565b60405180910390a1505050565b60008054905090565b600060048281548110610490577f4e487b7100000000000000000000000000000000000000000000000000000000600052603260045260246000fd5b9060005260206000200160009054906101000a900473ffffffffffffffffffffffffffffffffffffffff169050919050565b6000600360008373ffffffffffffffffffffffffffffffffffffffff1673ffffffffffffffffffffffffffffffffffffffff168152602001908152602001600020549050919050565b6000600260008373ffffffffffffffffffffffffffffffffffffffff1673ffffffffffffffffffffffffffffffffffffffff168152602001908152602001600020549050919050565b6000600154905090565b804710156105a1576040517f08c379a000000000000000000000000000000000000000000000000000000000815260040161059890610987565b60405180910390fd5b60008273ffffffffffffffffffffffffffffffffffffffff16826040516105c7906108c5565b60006040518083038185875af1925050503d8060008114610604576040519150601f19603f3d011682016040523d82523d6000602084013e610609565b606091505b505090508061064d576040517f08c379a000000000000000000000000000000000000000000000000000000000815260040161064490610967565b60405180910390fd5b505050565b60008135905061066181610bf5565b92915050565b60008135905061067681610c0c565b92915050565b60008135905061068b81610c23565b92915050565b6000602082840312156106a357600080fd5b60006106b184828501610652565b91505092915050565b6000602082840312156106cc57600080fd5b60006106da84828501610667565b91505092915050565b6000602082840312156106f557600080fd5b60006107038482850161067c565b91505092915050565b61071581610b61565b82525050565b61072481610b13565b82525050565b60006107376026836109ed565b91507f5061796d656e7453706c69747465723a206163636f756e7420686173206e6f2060008301527f73686172657300000000000000000000000000000000000000000000000000006020830152604082019050919050565b600061079d603a836109ed565b91507f416464726573733a20756e61626c6520746f2073656e642076616c75652c207260008301527f6563697069656e74206d617920686176652072657665727465640000000000006020830152604082019050919050565b6000610803601d836109ed565b91507f416464726573733a20696e73756666696369656e742062616c616e63650000006000830152602082019050919050565b6000610843602b836109ed565b91507f5061796d656e7453706c69747465723a206163636f756e74206973206e6f742060008301527f647565207061796d656e740000000000000000000000000000000000000000006020830152604082019050919050565b60006108a96000836109e2565b9150600082019050919050565b6108bf81610b57565b82525050565b60006108d08261089c565b9150819050919050565b60006020820190506108ef600083018461071b565b92915050565b600060408201905061090a600083018561070c565b61091760208301846108b6565b9392505050565b6000604082019050610933600083018561071b565b61094060208301846108b6565b9392505050565b600060208201905081810360008301526109608161072a565b9050919050565b6000602082019050818103600083015261098081610790565b9050919050565b600060208201905081810360008301526109a0816107f6565b9050919050565b600060208201905081810360008301526109c081610836565b9050919050565b60006020820190506109dc60008301846108b6565b92915050565b600081905092915050565b600082825260208201905092915050565b6000610a0982610b57565b9150610a1483610b57565b9250827fffffffffffffffffffffffffffffffffffffffffffffffffffffffffffffffff03821115610a4957610a48610b97565b5b828201905092915050565b6000610a5f82610b57565b9150610a6a83610b57565b925082610a7a57610a79610bc6565b5b828204905092915050565b6000610a9082610b57565b9150610a9b83610b57565b9250817fffffffffffffffffffffffffffffffffffffffffffffffffffffffffffffffff0483118215151615610ad457610ad3610b97565b5b828202905092915050565b6000610aea82610b57565b9150610af583610b57565b925082821015610b0857610b07610b97565b5b828203905092915050565b6000610b1e82610b37565b9050919050565b6000610b3082610b37565b9050919050565b600073ffffffffffffffffffffffffffffffffffffffff82169050919050565b6000819050919050565b6000610b6c82610b73565b9050919050565b6000610b7e82610b85565b9050919050565b6000610b9082610b37565b9050919050565b7f4e487b7100000000000000000000000000000000000000000000000000000000600052601160045260246000fd5b7f4e487b7100000000000000000000000000000000000000000000000000000000600052601260045260246000fd5b610bfe81610b13565b8114610c0957600080fd5b50565b610c1581610b25565b8114610c2057600080fd5b50565b610c2c81610b57565b8114610c3757600080fd5b5056fea26469706673582212203c68ca274da16f753196acdb291e3e5508ccd1833dfa81888dc16af3058ed59d64736f6c63430008000033a2646970667358221220c3f4338d143b3a79fbe9ae31ff6c09b71205e4f22bbfa895fdd3ba576587f7f464736f6c63430008000033",
  "immutableReferences": {},
  "source": "// SPDX-License-Identifier: MIT\npragma solidity ^0.8.0;\n\nimport \"./ContributorManager.sol\";\nimport \"./Roles.sol\";\n\ncontract AdminsManager is ContributorManager {\n    using Roles for Roles.Role;\n\n    event AdminAdded(address indexed account, uint256 groupId);\n    event AdminRemoved(address indexed account, uint256 groupId);\n\n    event GroupCreated(address indexed creator, uint256 groupId);\n    event EventStarted(address indexed startedBy, uint256 groupId);\n    event RegistrationEnded(address indexed endedBy, uint256 groupId);\n    event EventEnded(address indexed endedBy, uint256 groupId);\n\n    event CalculatedPot(\n        uint256 registeredRecipientCount,\n        uint256 winningsPerRecipient\n    );\n\n    constructor() {}\n\n    modifier onlyAdmins(uint256 groupId) {\n        require(isAdmin(msg.sender, groupId));\n        _;\n    }\n\n    function isAdmin(address account, uint256 groupId)\n        public\n        view\n        returns (bool)\n    {\n        return admins[groupId][account] == true;\n    }\n\n    modifier onlyAdminsOrCOO(uint256 groupId) {\n        require(isAdmin(msg.sender, groupId) || msg.sender == cooAddress);\n        _;\n    }\n\n    // TODO - allow COO to give \"admin-granting power\" to other admins\n    function addAdmin(address account, uint256 groupId) public onlyCOO {\n        _addAdmin(account, groupId);\n    }\n\n    function removeAdmin(address account, uint256 groupId) public onlyCOO {\n        _removeAdmin(account, groupId);\n    }\n\n    function renounceAdmin(uint256 groupId) public onlyAdmins(groupId) {\n        _removeAdmin(msg.sender, groupId);\n    }\n\n    function _addAdmin(address account, uint256 groupId) internal {\n        admins[groupId][account] = true;\n        emit AdminAdded(account, groupId);\n    }\n\n    function _removeAdmin(address account, uint256 groupId) internal {\n        admins[groupId][account] = false;\n        emit AdminRemoved(account, groupId);\n    }\n\n    function readEventInfo(uint256 groupId)\n        public\n        view\n        onlyAdmins(groupId)\n        returns (CrowdDropEvent memory)\n    {\n        return currentEvents[groupId];\n    }\n\n    function createNewGroup() public onlyCOO whenNotPaused {\n        uint256 newGroupId = uint256(blockhash(block.number));\n\n        CrowdDropEvent memory newGroup = CrowdDropEvent(\n            newGroupId,\n            EventState.CREATED,\n            block.timestamp,\n            block.timestamp,\n            block.timestamp,\n            0,\n            \"\",\n            \"\",\n            \"\",\n            address(0)\n        );\n\n        currentEvents[newGroupId] = newGroup;\n\n        emit GroupCreated(msg.sender, newGroupId);\n    }\n\n    function startEvent(uint256 groupId)\n        public\n        onlyAdmins(groupId)\n        whenNotPaused\n    {\n        currentEvents[groupId].currentState = EventState.REGISTRATION;\n        currentEvents[groupId].startTime = block.timestamp;\n\n        emit EventStarted(msg.sender, groupId);\n    }\n\n    function closeEventRegistration(uint256 groupId)\n        public\n        onlyAdmins(groupId)\n        whenNotPaused\n    {\n        currentEvents[groupId].registrationEndTime = block.timestamp;\n\n        // Transfer dev cut to cfo\n        payable(cfoAddress).transfer(\n            (address(this).balance * devCutPercentage) / 100\n        );\n\n        uint256[] memory potShares = new uint256[](\n            currentEvents[groupId].registeredRecipientsCount\n        );\n\n        for (\n            uint256 i;\n            i < currentEvents[groupId].registeredRecipientsCount;\n            i++\n        ) {\n            potShares[i] = 1;\n        }\n\n        pot[groupId] = new PaymentSplitter(\n            registeredRecipientsArray[groupId],\n            potShares\n        );\n\n        currentEvents[groupId].currentState = EventState.CLAIM_WINNINGS;\n\n        uint256 winningsPerRecipient = address(this).balance /\n            pot[groupId].totalShares();\n\n        emit CalculatedPot(\n            currentEvents[groupId].registeredRecipientsCount,\n            winningsPerRecipient\n        );\n\n        emit RegistrationEnded(msg.sender, groupId);\n    }\n\n    function endEvent(uint256 groupId)\n        public\n        onlyAdminsOrCOO(groupId)\n        whenNotPaused\n    {\n        currentEvents[groupId].endTime = block.timestamp;\n\n        currentEvents[groupId].currentState = EventState.ENDED;\n\n        pastEvents[groupId].push(currentEvents[groupId]);\n\n        emit EventEnded(msg.sender, groupId);\n    }\n\n    function addEligibleRecipient(address account, uint256 groupId)\n        public\n        whenNotPaused\n        onlyAdmins(groupId)\n    {\n        eligibleRecipients[groupId][account] = true;\n        emit EligibleRecipientAdded(account, groupId);\n    }\n\n    function removeEligibleRecipient(address account, uint256 groupId)\n        public\n        onlyAdmins(groupId)\n        whenNotPaused\n    {\n        eligibleRecipients[groupId][account] = false;\n        emit EligibleRecipientRemoved(account, groupId);\n    }\n\n    function addContributor(address account, uint256 groupId)\n        public\n        onlyAdminsOrCOO(groupId)\n        whenNotPaused\n    {\n        _addContributor(account, groupId);\n    }\n\n    function removeContributor(address account, uint256 groupId)\n        public\n        onlyAdminsOrCOO(groupId)\n        whenNotPaused\n    {\n        _removeContributor(account, groupId);\n    }\n}\n",
  "sourcePath": "/Users/jim/Git-Projects/CrowdDrop/eth/contracts/roles/AdminsManager.sol",
  "compiler": {
    "name": "solc",
    "version": "0.8.0+commit.c7dfd78e.Emscripten.clang"
  },
  "schemaVersion": "3.4.1",
  "updatedAt": "2021-07-14T19:36:43.506Z",
  "devdoc": {
    "kind": "dev",
    "methods": {
      "pause()": {
        "details": "Called by any \"C-level\" role to pause the contract. Used only when  a bug or exploit is detected and we need to limit damage."
      },
      "setCEO(address)": {
        "details": "Assigns a new address to act as the CEO. Only available to the current CEO.",
        "params": {
          "_newCEO": "The address of the new CEO"
        }
      },
      "setCFO(address)": {
        "details": "Assigns a new address to act as the CFO. Only available to the current CEO.",
        "params": {
          "_newCFO": "The address of the new CFO"
        }
      },
      "setCOO(address)": {
        "details": "Assigns a new address to act as the COO. Only available to the current CEO.",
        "params": {
          "_newCOO": "The address of the new COO"
        }
      },
      "unpause()": {
        "details": "Unpauses the smart contract. Can only be called by the CEO, since  one reason we may pause the contract is when CFO or COO accounts are  compromised."
      }
    },
    "version": 1
  },
  "userdoc": {
    "kind": "user",
    "methods": {
      "unpause()": {
        "notice": "This is public rather than external so it can be called by  derived contracts."
      }
    },
    "version": 1
  }
}