{
  "contractName": "CrowdDropCore",
  "abi": [
    {
      "inputs": [],
      "stateMutability": "nonpayable",
      "type": "constructor"
    },
    {
      "anonymous": false,
      "inputs": [
        {
          "indexed": true,
          "internalType": "address",
          "name": "account",
          "type": "address"
        },
        {
          "indexed": false,
          "internalType": "uint256",
          "name": "groupId",
          "type": "uint256"
        }
      ],
      "name": "AdminAdded",
      "type": "event"
    },
    {
      "anonymous": false,
      "inputs": [
        {
          "indexed": true,
          "internalType": "address",
          "name": "account",
          "type": "address"
        },
        {
          "indexed": false,
          "internalType": "uint256",
          "name": "groupId",
          "type": "uint256"
        }
      ],
      "name": "AdminRemoved",
      "type": "event"
    },
    {
      "anonymous": false,
      "inputs": [
        {
          "indexed": false,
          "internalType": "uint256",
          "name": "registeredRecipientCount",
          "type": "uint256"
        },
        {
          "indexed": false,
          "internalType": "uint256",
          "name": "winningsPerRecipient",
          "type": "uint256"
        }
      ],
      "name": "CalculatedPot",
      "type": "event"
    },
    {
      "anonymous": false,
      "inputs": [
        {
          "indexed": false,
          "internalType": "address",
          "name": "newContract",
          "type": "address"
        }
      ],
      "name": "ContractUpgrade",
      "type": "event"
    },
    {
      "anonymous": false,
      "inputs": [
        {
          "indexed": true,
          "internalType": "address",
          "name": "account",
          "type": "address"
        },
        {
          "indexed": false,
          "internalType": "uint256",
          "name": "groupId",
          "type": "uint256"
        },
        {
          "indexed": false,
          "internalType": "uint256",
          "name": "amount",
          "type": "uint256"
        }
      ],
      "name": "ContributionMade",
      "type": "event"
    },
    {
      "anonymous": false,
      "inputs": [
        {
          "indexed": true,
          "internalType": "address",
          "name": "account",
          "type": "address"
        },
        {
          "indexed": false,
          "internalType": "uint256",
          "name": "groupId",
          "type": "uint256"
        }
      ],
      "name": "ContributorAdded",
      "type": "event"
    },
    {
      "anonymous": false,
      "inputs": [
        {
          "indexed": true,
          "internalType": "address",
          "name": "account",
          "type": "address"
        },
        {
          "indexed": false,
          "internalType": "uint256",
          "name": "groupId",
          "type": "uint256"
        }
      ],
      "name": "ContributorRemoved",
      "type": "event"
    },
    {
      "anonymous": false,
      "inputs": [
        {
          "indexed": true,
          "internalType": "address",
          "name": "account",
          "type": "address"
        },
        {
          "indexed": false,
          "internalType": "uint256",
          "name": "groupId",
          "type": "uint256"
        }
      ],
      "name": "EligibleRecipientAdded",
      "type": "event"
    },
    {
      "anonymous": false,
      "inputs": [
        {
          "indexed": true,
          "internalType": "address",
          "name": "account",
          "type": "address"
        },
        {
          "indexed": false,
          "internalType": "uint256",
          "name": "groupId",
          "type": "uint256"
        }
      ],
      "name": "EligibleRecipientRemoved",
      "type": "event"
    },
    {
      "anonymous": false,
      "inputs": [],
      "name": "EventClose",
      "type": "event"
    },
    {
      "anonymous": false,
      "inputs": [
        {
          "indexed": true,
          "internalType": "address",
          "name": "endedBy",
          "type": "address"
        },
        {
          "indexed": false,
          "internalType": "uint256",
          "name": "groupId",
          "type": "uint256"
        }
      ],
      "name": "EventEnded",
      "type": "event"
    },
    {
      "anonymous": false,
      "inputs": [
        {
          "indexed": true,
          "internalType": "address",
          "name": "startedBy",
          "type": "address"
        },
        {
          "indexed": false,
          "internalType": "uint256",
          "name": "groupId",
          "type": "uint256"
        }
      ],
      "name": "EventStarted",
      "type": "event"
    },
    {
      "anonymous": false,
      "inputs": [
        {
          "indexed": true,
          "internalType": "address",
          "name": "creator",
          "type": "address"
        },
        {
          "indexed": false,
          "internalType": "uint256",
          "name": "groupId",
          "type": "uint256"
        }
      ],
      "name": "GroupCreated",
      "type": "event"
    },
    {
      "anonymous": false,
      "inputs": [
        {
          "indexed": true,
          "internalType": "address",
          "name": "account",
          "type": "address"
        },
        {
          "indexed": false,
          "internalType": "uint256",
          "name": "groupId",
          "type": "uint256"
        }
      ],
      "name": "RecipientRegistered",
      "type": "event"
    },
    {
      "anonymous": false,
      "inputs": [
        {
          "indexed": true,
          "internalType": "address",
          "name": "endedBy",
          "type": "address"
        },
        {
          "indexed": false,
          "internalType": "uint256",
          "name": "groupId",
          "type": "uint256"
        }
      ],
      "name": "RegistrationEnded",
      "type": "event"
    },
    {
      "anonymous": false,
      "inputs": [],
      "name": "RegistrationOpen",
      "type": "event"
    },
    {
      "anonymous": false,
      "inputs": [
        {
          "indexed": false,
          "internalType": "address",
          "name": "from",
          "type": "address"
        },
        {
          "indexed": false,
          "internalType": "address",
          "name": "to",
          "type": "address"
        }
      ],
      "name": "Transfer",
      "type": "event"
    },
    {
      "anonymous": false,
      "inputs": [
        {
          "indexed": true,
          "internalType": "address",
          "name": "account",
          "type": "address"
        },
        {
          "indexed": false,
          "internalType": "uint256",
          "name": "groupId",
          "type": "uint256"
        }
      ],
      "name": "WinningsClaimed",
      "type": "event"
    },
    {
      "anonymous": false,
      "inputs": [],
      "name": "WinningsClaimingOpen",
      "type": "event"
    },
    {
      "inputs": [
        {
          "internalType": "address",
          "name": "account",
          "type": "address"
        },
        {
          "internalType": "uint256",
          "name": "groupId",
          "type": "uint256"
        }
      ],
      "name": "addAdmin",
      "outputs": [],
      "stateMutability": "nonpayable",
      "type": "function"
    },
    {
      "inputs": [
        {
          "internalType": "address",
          "name": "account",
          "type": "address"
        },
        {
          "internalType": "uint256",
          "name": "groupId",
          "type": "uint256"
        }
      ],
      "name": "addContributor",
      "outputs": [],
      "stateMutability": "nonpayable",
      "type": "function"
    },
    {
      "inputs": [
        {
          "internalType": "address",
          "name": "account",
          "type": "address"
        },
        {
          "internalType": "uint256",
          "name": "groupId",
          "type": "uint256"
        }
      ],
      "name": "addEligibleRecipient",
      "outputs": [],
      "stateMutability": "nonpayable",
      "type": "function"
    },
    {
      "inputs": [],
      "name": "ceoAddress",
      "outputs": [
        {
          "internalType": "address",
          "name": "",
          "type": "address"
        }
      ],
      "stateMutability": "view",
      "type": "function"
    },
    {
      "inputs": [],
      "name": "cfoAddress",
      "outputs": [
        {
          "internalType": "address",
          "name": "",
          "type": "address"
        }
      ],
      "stateMutability": "view",
      "type": "function"
    },
    {
      "inputs": [
        {
          "internalType": "uint256",
          "name": "groupId",
          "type": "uint256"
        }
      ],
      "name": "claimWinnings",
      "outputs": [],
      "stateMutability": "nonpayable",
      "type": "function"
    },
    {
      "inputs": [
        {
          "internalType": "uint256",
          "name": "groupId",
          "type": "uint256"
        }
      ],
      "name": "closeEventRegistration",
      "outputs": [],
      "stateMutability": "nonpayable",
      "type": "function"
    },
    {
      "inputs": [
        {
          "internalType": "uint256",
          "name": "groupId",
          "type": "uint256"
        }
      ],
      "name": "contributeToPot",
      "outputs": [],
      "stateMutability": "payable",
      "type": "function"
    },
    {
      "inputs": [],
      "name": "cooAddress",
      "outputs": [
        {
          "internalType": "address",
          "name": "",
          "type": "address"
        }
      ],
      "stateMutability": "view",
      "type": "function"
    },
    {
      "inputs": [],
      "name": "createNewGroup",
      "outputs": [],
      "stateMutability": "nonpayable",
      "type": "function"
    },
    {
      "inputs": [
        {
          "internalType": "uint256",
          "name": "groupId",
          "type": "uint256"
        }
      ],
      "name": "endEvent",
      "outputs": [],
      "stateMutability": "nonpayable",
      "type": "function"
    },
    {
      "inputs": [
        {
          "internalType": "address",
          "name": "account",
          "type": "address"
        },
        {
          "internalType": "uint256",
          "name": "groupId",
          "type": "uint256"
        }
      ],
      "name": "isAdmin",
      "outputs": [
        {
          "internalType": "bool",
          "name": "",
          "type": "bool"
        }
      ],
      "stateMutability": "view",
      "type": "function"
    },
    {
      "inputs": [
        {
          "internalType": "address",
          "name": "account",
          "type": "address"
        },
        {
          "internalType": "uint256",
          "name": "groupId",
          "type": "uint256"
        }
      ],
      "name": "isContributor",
      "outputs": [
        {
          "internalType": "bool",
          "name": "",
          "type": "bool"
        }
      ],
      "stateMutability": "view",
      "type": "function"
    },
    {
      "inputs": [
        {
          "internalType": "address",
          "name": "account",
          "type": "address"
        },
        {
          "internalType": "uint256",
          "name": "groupId",
          "type": "uint256"
        }
      ],
      "name": "isEligibleRecipient",
      "outputs": [
        {
          "internalType": "bool",
          "name": "",
          "type": "bool"
        }
      ],
      "stateMutability": "view",
      "type": "function"
    },
    {
      "inputs": [
        {
          "internalType": "address",
          "name": "account",
          "type": "address"
        },
        {
          "internalType": "uint256",
          "name": "groupId",
          "type": "uint256"
        }
      ],
      "name": "isRegisteredRecipient",
      "outputs": [
        {
          "internalType": "bool",
          "name": "",
          "type": "bool"
        }
      ],
      "stateMutability": "view",
      "type": "function"
    },
    {
      "inputs": [],
      "name": "newContractAddress",
      "outputs": [
        {
          "internalType": "address",
          "name": "",
          "type": "address"
        }
      ],
      "stateMutability": "view",
      "type": "function"
    },
    {
      "inputs": [],
      "name": "pause",
      "outputs": [],
      "stateMutability": "nonpayable",
      "type": "function"
    },
    {
      "inputs": [],
      "name": "paused",
      "outputs": [
        {
          "internalType": "bool",
          "name": "",
          "type": "bool"
        }
      ],
      "stateMutability": "view",
      "type": "function"
    },
    {
      "inputs": [
        {
          "internalType": "uint256",
          "name": "groupId",
          "type": "uint256"
        }
      ],
      "name": "readEventInfo",
      "outputs": [
        {
          "components": [
            {
              "internalType": "uint256",
              "name": "groupId",
              "type": "uint256"
            },
            {
              "internalType": "enum CrowdDropBase.EventState",
              "name": "currentState",
              "type": "uint8"
            },
            {
              "internalType": "uint256",
              "name": "startTime",
              "type": "uint256"
            },
            {
              "internalType": "uint256",
              "name": "registrationEndTime",
              "type": "uint256"
            },
            {
              "internalType": "uint256",
              "name": "endTime",
              "type": "uint256"
            },
            {
              "internalType": "uint256",
              "name": "registeredRecipientsCount",
              "type": "uint256"
            },
            {
              "internalType": "string",
              "name": "sponsorName",
              "type": "string"
            },
            {
              "internalType": "string",
              "name": "sponsorImageUrl",
              "type": "string"
            },
            {
              "internalType": "string",
              "name": "sponsorLinkToUrl",
              "type": "string"
            },
            {
              "internalType": "address",
              "name": "currentContributor",
              "type": "address"
            }
          ],
          "internalType": "struct CrowdDropBase.CrowdDropEvent",
          "name": "",
          "type": "tuple"
        }
      ],
      "stateMutability": "view",
      "type": "function"
    },
    {
      "inputs": [
        {
          "internalType": "uint256",
          "name": "groupId",
          "type": "uint256"
        }
      ],
      "name": "registerForEvent",
      "outputs": [],
      "stateMutability": "nonpayable",
      "type": "function"
    },
    {
      "inputs": [
        {
          "internalType": "address",
          "name": "account",
          "type": "address"
        },
        {
          "internalType": "uint256",
          "name": "groupId",
          "type": "uint256"
        }
      ],
      "name": "removeAdmin",
      "outputs": [],
      "stateMutability": "nonpayable",
      "type": "function"
    },
    {
      "inputs": [
        {
          "internalType": "address",
          "name": "account",
          "type": "address"
        },
        {
          "internalType": "uint256",
          "name": "groupId",
          "type": "uint256"
        }
      ],
      "name": "removeContributor",
      "outputs": [],
      "stateMutability": "nonpayable",
      "type": "function"
    },
    {
      "inputs": [
        {
          "internalType": "address",
          "name": "account",
          "type": "address"
        },
        {
          "internalType": "uint256",
          "name": "groupId",
          "type": "uint256"
        }
      ],
      "name": "removeEligibleRecipient",
      "outputs": [],
      "stateMutability": "nonpayable",
      "type": "function"
    },
    {
      "inputs": [
        {
          "internalType": "uint256",
          "name": "groupId",
          "type": "uint256"
        }
      ],
      "name": "renounceAdmin",
      "outputs": [],
      "stateMutability": "nonpayable",
      "type": "function"
    },
    {
      "inputs": [
        {
          "internalType": "uint256",
          "name": "groupId",
          "type": "uint256"
        }
      ],
      "name": "renounceContributor",
      "outputs": [],
      "stateMutability": "nonpayable",
      "type": "function"
    },
    {
      "inputs": [
        {
          "internalType": "address",
          "name": "_newCEO",
          "type": "address"
        }
      ],
      "name": "setCEO",
      "outputs": [],
      "stateMutability": "nonpayable",
      "type": "function"
    },
    {
      "inputs": [
        {
          "internalType": "address",
          "name": "_newCFO",
          "type": "address"
        }
      ],
      "name": "setCFO",
      "outputs": [],
      "stateMutability": "nonpayable",
      "type": "function"
    },
    {
      "inputs": [
        {
          "internalType": "address",
          "name": "_newCOO",
          "type": "address"
        }
      ],
      "name": "setCOO",
      "outputs": [],
      "stateMutability": "nonpayable",
      "type": "function"
    },
    {
      "inputs": [
        {
          "internalType": "uint256",
          "name": "groupId",
          "type": "uint256"
        }
      ],
      "name": "startEvent",
      "outputs": [],
      "stateMutability": "nonpayable",
      "type": "function"
    },
    {
      "inputs": [],
      "name": "unpause",
      "outputs": [],
      "stateMutability": "nonpayable",
      "type": "function"
    },
    {
      "inputs": [
        {
          "internalType": "address",
          "name": "_v2Address",
          "type": "address"
        }
      ],
      "name": "setNewAddress",
      "outputs": [],
      "stateMutability": "nonpayable",
      "type": "function"
    }
  ],
  "bytecode": "0x60806040526000600260146101000a81548160ff021916908315150217905550600560035534801561003057600080fd5b506001600260146101000a81548160ff021916908315150217905550336000806101000a81548173ffffffffffffffffffffffffffffffffffffffff021916908373ffffffffffffffffffffffffffffffffffffffff16021790555033600260006101000a81548173ffffffffffffffffffffffffffffffffffffffff021916908373ffffffffffffffffffffffffffffffffffffffff160217905550614a9d806100dc6000396000f3fe608060405260043610620002065760003560e01c806371587988116200011b578063ab4e194511620000a3578063e320d5e7116200006d578063e320d5e714620006f5578063e33db4261462000723578063e62092be1462000767578063e82f24e014620007ab5762000206565b8063ab4e1945146200063b578063b047fb501462000669578063c6e0ddfa1462000699578063e0bd7d1514620006c75762000206565b80638182aaf211620000e55780638182aaf214620005955780638456cb5914620005d95780639055bdad14620005f3578063a59a6953146200060d5762000206565b80637158798814620004c7578063785142be14620004f55780637d837ce514620005235780637fcb29c914620005675762000206565b80633f4ba83a116200019f5780635c975abb11620001695780635c975abb14620003f55780635e82c1fc1462000425578063677bd9ff14620004695780636af04a5714620004975762000206565b80633f4ba83a1462000351578063406db843146200036b5780634e0a337914620003995780634f1ef03c14620003c75762000206565b806327d7874c11620001e157806327d7874c14620002995780632ba73c1514620002c757806330bb011514620002f5578063330a347b14620003235762000206565b80630519ce79146200020b5780630a0f8168146200023b57806315891ff4146200026b575b600080fd5b3480156200021857600080fd5b5062000223620007cb565b60405162000232919062002e99565b60405180910390f35b3480156200024857600080fd5b5062000253620007f1565b60405162000262919062002e99565b60405180910390f35b3480156200027857600080fd5b5062000297600480360381019062000291919062002b3b565b62000815565b005b348015620002a657600080fd5b50620002c56004803603810190620002bf919062002b0f565b62000905565b005b348015620002d457600080fd5b50620002f36004803603810190620002ed919062002b0f565b620009dc565b005b3480156200030257600080fd5b506200032160048036038101906200031b919062002b7c565b62000ab4565b005b3480156200033057600080fd5b506200034f600480360381019062000349919062002b7c565b62000adb565b005b3480156200035e57600080fd5b506200036962000df5565b005b3480156200037857600080fd5b5062000397600480360381019062000391919062002b7c565b62000e85565b005b348015620003a657600080fd5b50620003c56004803603810190620003bf919062002b0f565b62001016565b005b348015620003d457600080fd5b50620003f36004803603810190620003ed919062002b7c565b620010ee565b005b3480156200040257600080fd5b506200040d62001130565b6040516200041c919062002f0e565b60405180910390f35b3480156200043257600080fd5b506200045160048036038101906200044b919062002b3b565b62001143565b60405162000460919062002f0e565b60405180910390f35b3480156200047657600080fd5b506200049560048036038101906200048f919062002b7c565b620011cd565b005b348015620004a457600080fd5b50620004af620012f5565b604051620004be919062002e99565b60405180910390f35b348015620004d457600080fd5b50620004f36004803603810190620004ed919062002b0f565b6200131b565b005b3480156200050257600080fd5b506200052160048036038101906200051b919062002b7c565b6200140b565b005b3480156200053057600080fd5b506200054f600480360381019062000549919062002b3b565b6200185c565b6040516200055e919062002f0e565b60405180910390f35b3480156200057457600080fd5b506200059360048036038101906200058d919062002b3b565b620018e6565b005b348015620005a257600080fd5b50620005c16004803603810190620005bb919062002b3b565b62001951565b604051620005d0919062002f0e565b60405180910390f35b348015620005e657600080fd5b50620005f1620019db565b005b3480156200060057600080fd5b506200060b62001b1e565b005b3480156200061a57600080fd5b5062000639600480360381019062000633919062002b7c565b62001e00565b005b3480156200064857600080fd5b5062000667600480360381019062000661919062002b3b565b62001f07565b005b3480156200067657600080fd5b506200068162001ff7565b60405162000690919062002e99565b60405180910390f35b348015620006a657600080fd5b50620006c56004803603810190620006bf919062002b3b565b6200201d565b005b348015620006d457600080fd5b50620006f36004803603810190620006ed919062002b3b565b62002088565b005b3480156200070257600080fd5b506200072160048036038101906200071b919062002b3b565b62002124565b005b3480156200073057600080fd5b506200074f600480360381019062000749919062002b7c565b620021c0565b6040516200075e919062002f2b565b60405180910390f35b3480156200077457600080fd5b506200079360048036038101906200078d919062002b3b565b620024e7565b604051620007a2919062002f0e565b60405180910390f35b620007c96004803603810190620007c3919062002b7c565b62002556565b005b600160009054906101000a900473ffffffffffffffffffffffffffffffffffffffff1681565b60008054906101000a900473ffffffffffffffffffffffffffffffffffffffff1681565b80620008223382620024e7565b6200082c57600080fd5b600260149054906101000a900460ff16156200084757600080fd5b60006008600084815260200190815260200160002060008573ffffffffffffffffffffffffffffffffffffffff1673ffffffffffffffffffffffffffffffffffffffff16815260200190815260200160002060006101000a81548160ff0219169083151502179055508273ffffffffffffffffffffffffffffffffffffffff167f1af6d16168d33745872119540d28858eed156c5f265206bbf1344fda39a93a3383604051620008f8919062002f4f565b60405180910390a2505050565b60008054906101000a900473ffffffffffffffffffffffffffffffffffffffff1673ffffffffffffffffffffffffffffffffffffffff163373ffffffffffffffffffffffffffffffffffffffff16146200095e57600080fd5b600073ffffffffffffffffffffffffffffffffffffffff168173ffffffffffffffffffffffffffffffffffffffff1614156200099957600080fd5b806000806101000a81548173ffffffffffffffffffffffffffffffffffffffff021916908373ffffffffffffffffffffffffffffffffffffffff16021790555050565b60008054906101000a900473ffffffffffffffffffffffffffffffffffffffff1673ffffffffffffffffffffffffffffffffffffffff163373ffffffffffffffffffffffffffffffffffffffff161462000a3557600080fd5b600073ffffffffffffffffffffffffffffffffffffffff168173ffffffffffffffffffffffffffffffffffffffff16141562000a7057600080fd5b80600260006101000a81548173ffffffffffffffffffffffffffffffffffffffff021916908373ffffffffffffffffffffffffffffffffffffffff16021790555050565b8062000ac13382620024e7565b62000acb57600080fd5b62000ad73383620025de565b5050565b8062000ae83382620024e7565b8062000b415750600260009054906101000a900473ffffffffffffffffffffffffffffffffffffffff1673ffffffffffffffffffffffffffffffffffffffff163373ffffffffffffffffffffffffffffffffffffffff16145b62000b4b57600080fd5b600260149054906101000a900460ff161562000b6657600080fd5b42600460008481526020019081526020016000206004018190555060036004600084815260200190815260200160002060010160006101000a81548160ff0219169083600381111562000be2577f4e487b7100000000000000000000000000000000000000000000000000000000600052602160045260246000fd5b0217905550600560008381526020019081526020016000206004600084815260200190815260200160002090806001815401808255809150506001900390600052602060002090600a0201600090919091909150600082015481600001556001820160009054906101000a900460ff168160010160006101000a81548160ff0219169083600381111562000c9f577f4e487b7100000000000000000000000000000000000000000000000000000000600052602160045260246000fd5b021790555060028201548160020155600382015481600301556004820154816004015560058201548160050155600682018160060190805462000ce290620031a2565b62000cef929190620028d2565b50600782018160070190805462000d0690620031a2565b62000d13929190620028d2565b50600882018160080190805462000d2a90620031a2565b62000d37929190620028d2565b506009820160009054906101000a900473ffffffffffffffffffffffffffffffffffffffff168160090160006101000a81548173ffffffffffffffffffffffffffffffffffffffff021916908373ffffffffffffffffffffffffffffffffffffffff16021790555050503373ffffffffffffffffffffffffffffffffffffffff167f6f45a19e8850c727d0de9f32e0d8691324a9a74ffb4347652e6404138b1d81658360405162000de9919062002f4f565b60405180910390a25050565b60008054906101000a900473ffffffffffffffffffffffffffffffffffffffff1673ffffffffffffffffffffffffffffffffffffffff163373ffffffffffffffffffffffffffffffffffffffff161462000e4e57600080fd5b600260149054906101000a900460ff1662000e6857600080fd5b6000600260146101000a81548160ff021916908315150217905550565b8062000e92338262001143565b62000e9c57600080fd5b600260149054906101000a900460ff161562000eb757600080fd5b60016009600084815260200190815260200160002060003373ffffffffffffffffffffffffffffffffffffffff1673ffffffffffffffffffffffffffffffffffffffff16815260200190815260200160002060006101000a81548160ff021916908315150217905550600a6000838152602001908152602001600020339080600181540180825580915050600190039060005260206000200160009091909190916101000a81548173ffffffffffffffffffffffffffffffffffffffff021916908373ffffffffffffffffffffffffffffffffffffffff16021790555060046000838152602001908152602001600020600501600081548092919062000fbd90620031f6565b91905055503373ffffffffffffffffffffffffffffffffffffffff167f0695e999be8100bdb5bee8612337296508d527eae78c65b8f170eacb5a3b439d836040516200100a919062002f4f565b60405180910390a25050565b60008054906101000a900473ffffffffffffffffffffffffffffffffffffffff1673ffffffffffffffffffffffffffffffffffffffff163373ffffffffffffffffffffffffffffffffffffffff16146200106f57600080fd5b600073ffffffffffffffffffffffffffffffffffffffff168173ffffffffffffffffffffffffffffffffffffffff161415620010aa57600080fd5b80600160006101000a81548173ffffffffffffffffffffffffffffffffffffffff021916908373ffffffffffffffffffffffffffffffffffffffff16021790555050565b80620010fb338262001951565b6200110557600080fd5b600260149054906101000a900460ff16156200112057600080fd5b6200112c33836200269b565b5050565b600260149054906101000a900460ff1681565b6000600260149054906101000a900460ff16156200116057600080fd5b600115156008600084815260200190815260200160002060008573ffffffffffffffffffffffffffffffffffffffff1673ffffffffffffffffffffffffffffffffffffffff16815260200190815260200160002060009054906101000a900460ff16151514905092915050565b80620011da33826200185c565b620011e457600080fd5b600260149054906101000a900460ff1615620011ff57600080fd5b600b600083815260200190815260200160002060009054906101000a900473ffffffffffffffffffffffffffffffffffffffff1673ffffffffffffffffffffffffffffffffffffffff166319165587336040518263ffffffff1660e01b81526004016200126d919062002eb6565b600060405180830381600087803b1580156200128857600080fd5b505af11580156200129d573d6000803e3d6000fd5b505050503373ffffffffffffffffffffffffffffffffffffffff167f1a31e733a172afcf46074b3106c17f0c298e226442682a03c1e99ce256139ec283604051620012e9919062002f4f565b60405180910390a25050565b600c60009054906101000a900473ffffffffffffffffffffffffffffffffffffffff1681565b60008054906101000a900473ffffffffffffffffffffffffffffffffffffffff1673ffffffffffffffffffffffffffffffffffffffff163373ffffffffffffffffffffffffffffffffffffffff16146200137457600080fd5b600260149054906101000a900460ff166200138e57600080fd5b80600c60006101000a81548173ffffffffffffffffffffffffffffffffffffffff021916908373ffffffffffffffffffffffffffffffffffffffff1602179055507f450db8da6efbe9c22f2347f7c2021231df1fc58d3ae9a2fa75d39fa4461993058160405162001400919062002e99565b60405180910390a150565b80620014183382620024e7565b6200142257600080fd5b600260149054906101000a900460ff16156200143d57600080fd5b426004600084815260200190815260200160002060030181905550600160009054906101000a900473ffffffffffffffffffffffffffffffffffffffff1673ffffffffffffffffffffffffffffffffffffffff166108fc606460035447620014a6919062003064565b620014b291906200302c565b9081150290604051600060405180830381858888f19350505050158015620014de573d6000803e3d6000fd5b506000600460008481526020019081526020016000206005015467ffffffffffffffff81111562001538577f4e487b7100000000000000000000000000000000000000000000000000000000600052604160045260246000fd5b604051908082528060200260200182016040528015620015675781602001602082028036833780820191505090505b50905060005b6004600085815260200190815260200160002060050154811015620015ea576001828281518110620015c8577f4e487b7100000000000000000000000000000000000000000000000000000000600052603260045260246000fd5b6020026020010181815250508080620015e190620031f6565b9150506200156d565b50600a6000848152602001908152602001600020816040516200160d906200296a565b6200161a92919062002ed3565b604051809103906000f08015801562001637573d6000803e3d6000fd5b50600b600085815260200190815260200160002060006101000a81548173ffffffffffffffffffffffffffffffffffffffff021916908373ffffffffffffffffffffffffffffffffffffffff16021790555060026004600085815260200190815260200160002060010160006101000a81548160ff02191690836003811115620016ea577f4e487b7100000000000000000000000000000000000000000000000000000000600052602160045260246000fd5b02179055506000600b600085815260200190815260200160002060009054906101000a900473ffffffffffffffffffffffffffffffffffffffff1673ffffffffffffffffffffffffffffffffffffffff16633a98ef396040518163ffffffff1660e01b815260040160206040518083038186803b1580156200176b57600080fd5b505afa15801562001780573d6000803e3d6000fd5b505050506040513d601f19601f82011682018060405250810190620017a6919062002ba8565b47620017b391906200302c565b90507f80bb271e4cd4fd0e4cc21617a1a4cfe46af15e974bb329a92e7c15a69665158c600460008681526020019081526020016000206005015482604051620017fe92919062002f6c565b60405180910390a13373ffffffffffffffffffffffffffffffffffffffff167fef898a6941c945450e9bbdad4a76fcd0f51f42f7e251fddcb1e5479ba786d5e4856040516200184e919062002f4f565b60405180910390a250505050565b6000600260149054906101000a900460ff16156200187957600080fd5b600115156009600084815260200190815260200160002060008573ffffffffffffffffffffffffffffffffffffffff1673ffffffffffffffffffffffffffffffffffffffff16815260200190815260200160002060009054906101000a900460ff16151514905092915050565b600260009054906101000a900473ffffffffffffffffffffffffffffffffffffffff1673ffffffffffffffffffffffffffffffffffffffff163373ffffffffffffffffffffffffffffffffffffffff16146200194157600080fd5b6200194d828262002758565b5050565b6000600260149054906101000a900460ff16156200196e57600080fd5b600115156007600084815260200190815260200160002060008573ffffffffffffffffffffffffffffffffffffffff1673ffffffffffffffffffffffffffffffffffffffff16815260200190815260200160002060009054906101000a900460ff16151514905092915050565b600260009054906101000a900473ffffffffffffffffffffffffffffffffffffffff1673ffffffffffffffffffffffffffffffffffffffff163373ffffffffffffffffffffffffffffffffffffffff16148062001a83575060008054906101000a900473ffffffffffffffffffffffffffffffffffffffff1673ffffffffffffffffffffffffffffffffffffffff163373ffffffffffffffffffffffffffffffffffffffff16145b8062001adc5750600160009054906101000a900473ffffffffffffffffffffffffffffffffffffffff1673ffffffffffffffffffffffffffffffffffffffff163373ffffffffffffffffffffffffffffffffffffffff16145b62001ae657600080fd5b600260149054906101000a900460ff161562001b0157600080fd5b6001600260146101000a81548160ff021916908315150217905550565b600260009054906101000a900473ffffffffffffffffffffffffffffffffffffffff1673ffffffffffffffffffffffffffffffffffffffff163373ffffffffffffffffffffffffffffffffffffffff161462001b7957600080fd5b600260149054906101000a900460ff161562001b9457600080fd5b6000434060001c905060006040518061014001604052808381526020016000600381111562001bec577f4e487b7100000000000000000000000000000000000000000000000000000000600052602160045260246000fd5b815260200142815260200142815260200142815260200160008152602001604051806020016040528060008152508152602001604051806020016040528060008152508152602001604051806020016040528060008152508152602001600073ffffffffffffffffffffffffffffffffffffffff16815250905080600460008481526020019081526020016000206000820151816000015560208201518160010160006101000a81548160ff0219169083600381111562001cd6577f4e487b7100000000000000000000000000000000000000000000000000000000600052602160045260246000fd5b021790555060408201518160020155606082015181600301556080820151816004015560a0820151816005015560c082015181600601908051906020019062001d2192919062002978565b5060e082015181600701908051906020019062001d4092919062002978565b5061010082015181600801908051906020019062001d6092919062002978565b506101208201518160090160006101000a81548173ffffffffffffffffffffffffffffffffffffffff021916908373ffffffffffffffffffffffffffffffffffffffff1602179055509050503373ffffffffffffffffffffffffffffffffffffffff167f3482e3d6d38a18835a6ad59afad8098300ce9f907925e4be71126d7b43dc803d8360405162001df4919062002f4f565b60405180910390a25050565b8062001e0d3382620024e7565b62001e1757600080fd5b600260149054906101000a900460ff161562001e3257600080fd5b60016004600084815260200190815260200160002060010160006101000a81548160ff0219169083600381111562001e93577f4e487b7100000000000000000000000000000000000000000000000000000000600052602160045260246000fd5b02179055504260046000848152602001908152602001600020600201819055503373ffffffffffffffffffffffffffffffffffffffff167ff77c6f27499b698205f54058c2914a340e1300c2bc0d9a819e7aebfbaabbbb938360405162001efb919062002f4f565b60405180910390a25050565b600260149054906101000a900460ff161562001f2257600080fd5b8062001f2f3382620024e7565b62001f3957600080fd5b60016008600084815260200190815260200160002060008573ffffffffffffffffffffffffffffffffffffffff1673ffffffffffffffffffffffffffffffffffffffff16815260200190815260200160002060006101000a81548160ff0219169083151502179055508273ffffffffffffffffffffffffffffffffffffffff167f46b8357d30dedd734a71d059a385f46b6e667bff20233f907477760207f889658360405162001fea919062002f4f565b60405180910390a2505050565b600260009054906101000a900473ffffffffffffffffffffffffffffffffffffffff1681565b600260009054906101000a900473ffffffffffffffffffffffffffffffffffffffff1673ffffffffffffffffffffffffffffffffffffffff163373ffffffffffffffffffffffffffffffffffffffff16146200207857600080fd5b620020848282620025de565b5050565b80620020953382620024e7565b80620020ee5750600260009054906101000a900473ffffffffffffffffffffffffffffffffffffffff1673ffffffffffffffffffffffffffffffffffffffff163373ffffffffffffffffffffffffffffffffffffffff16145b620020f857600080fd5b600260149054906101000a900460ff16156200211357600080fd5b6200211f838362002815565b505050565b80620021313382620024e7565b806200218a5750600260009054906101000a900473ffffffffffffffffffffffffffffffffffffffff1673ffffffffffffffffffffffffffffffffffffffff163373ffffffffffffffffffffffffffffffffffffffff16145b6200219457600080fd5b600260149054906101000a900460ff1615620021af57600080fd5b620021bb83836200269b565b505050565b620021ca62002a09565b81620021d73382620024e7565b620021e157600080fd5b6004600084815260200190815260200160002060405180610140016040529081600082015481526020016001820160009054906101000a900460ff16600381111562002256577f4e487b7100000000000000000000000000000000000000000000000000000000600052602160045260246000fd5b60038111156200228f577f4e487b7100000000000000000000000000000000000000000000000000000000600052602160045260246000fd5b815260200160028201548152602001600382015481526020016004820154815260200160058201548152602001600682018054620022cd90620031a2565b80601f0160208091040260200160405190810160405280929190818152602001828054620022fb90620031a2565b80156200234c5780601f1062002320576101008083540402835291602001916200234c565b820191906000526020600020905b8154815290600101906020018083116200232e57829003601f168201915b505050505081526020016007820180546200236790620031a2565b80601f01602080910402602001604051908101604052809291908181526020018280546200239590620031a2565b8015620023e65780601f10620023ba57610100808354040283529160200191620023e6565b820191906000526020600020905b815481529060010190602001808311620023c857829003601f168201915b505050505081526020016008820180546200240190620031a2565b80601f01602080910402602001604051908101604052809291908181526020018280546200242f90620031a2565b8015620024805780601f10620024545761010080835404028352916020019162002480565b820191906000526020600020905b8154815290600101906020018083116200246257829003601f168201915b505050505081526020016009820160009054906101000a900473ffffffffffffffffffffffffffffffffffffffff1673ffffffffffffffffffffffffffffffffffffffff1673ffffffffffffffffffffffffffffffffffffffff1681525050915050919050565b6000600115156006600084815260200190815260200160002060008573ffffffffffffffffffffffffffffffffffffffff1673ffffffffffffffffffffffffffffffffffffffff16815260200190815260200160002060009054906101000a900460ff16151514905092915050565b8062002563338262001951565b6200256d57600080fd5b600260149054906101000a900460ff16156200258857600080fd5b3373ffffffffffffffffffffffffffffffffffffffff167f5dc1fe5ab986a852c4eda8e8bb94247d13307065c593fb83f1a09be2736793828334604051620025d292919062002f6c565b60405180910390a25050565b60006006600083815260200190815260200160002060008473ffffffffffffffffffffffffffffffffffffffff1673ffffffffffffffffffffffffffffffffffffffff16815260200190815260200160002060006101000a81548160ff0219169083151502179055508173ffffffffffffffffffffffffffffffffffffffff167fa0726c73cf6ad18ddb855ba65d1ddd4d7fd37d320f4e52f6b154c13d386f5fd9826040516200268f919062002f4f565b60405180910390a25050565b60006007600083815260200190815260200160002060008473ffffffffffffffffffffffffffffffffffffffff1673ffffffffffffffffffffffffffffffffffffffff16815260200190815260200160002060006101000a81548160ff0219169083151502179055508173ffffffffffffffffffffffffffffffffffffffff167fda111d7eb5d5b2033c4ffad00cd7cd42f45af2813bee1a69e65f26d90ea15f0b826040516200274c919062002f4f565b60405180910390a25050565b60016006600083815260200190815260200160002060008473ffffffffffffffffffffffffffffffffffffffff1673ffffffffffffffffffffffffffffffffffffffff16815260200190815260200160002060006101000a81548160ff0219169083151502179055508173ffffffffffffffffffffffffffffffffffffffff167f723c2b747529ca7f5eb53a74808f4a8b9bf264f0fc450fd904900151da74548a8260405162002809919062002f4f565b60405180910390a25050565b60016007600083815260200190815260200160002060008473ffffffffffffffffffffffffffffffffffffffff1673ffffffffffffffffffffffffffffffffffffffff16815260200190815260200160002060006101000a81548160ff0219169083151502179055508173ffffffffffffffffffffffffffffffffffffffff167f5fd6d0b7e707fe344bd2a1887f9d0eeea8bfcac6f339ba4200e74f0647f101c082604051620028c6919062002f4f565b60405180910390a25050565b828054620028e090620031a2565b90600052602060002090601f01602090048101928262002904576000855562002957565b82601f1062002917578054855562002957565b828001600101855582156200295757600052602060002091601f016020900482015b828111156200295657825482559160010191906001019062002939565b5b50905062002966919062002aab565b5090565b6116e9806200337f83390190565b8280546200298690620031a2565b90600052602060002090601f016020900481019282620029aa5760008555620029f6565b82601f10620029c557805160ff1916838001178555620029f6565b82800160010185558215620029f6579182015b82811115620029f5578251825591602001919060010190620029d8565b5b50905062002a05919062002aab565b5090565b604051806101400160405280600081526020016000600381111562002a57577f4e487b7100000000000000000000000000000000000000000000000000000000600052602160045260246000fd5b815260200160008152602001600081526020016000815260200160008152602001606081526020016060815260200160608152602001600073ffffffffffffffffffffffffffffffffffffffff1681525090565b5b8082111562002ac657600081600090555060010162002aac565b5090565b60008135905062002adb816200334a565b92915050565b60008135905062002af28162003364565b92915050565b60008151905062002b098162003364565b92915050565b60006020828403121562002b2257600080fd5b600062002b328482850162002aca565b91505092915050565b6000806040838503121562002b4f57600080fd5b600062002b5f8582860162002aca565b925050602062002b728582860162002ae1565b9150509250929050565b60006020828403121562002b8f57600080fd5b600062002b9f8482850162002ae1565b91505092915050565b60006020828403121562002bbb57600080fd5b600062002bcb8482850162002af8565b91505092915050565b600062002be2838362002c19565b60208301905092915050565b600062002bfc838362002e77565b60208301905092915050565b62002c1381620030f9565b82525050565b62002c2481620030e5565b82525050565b62002c3581620030e5565b82525050565b600062002c488262002fbe565b62002c54818562002ff9565b935062002c618362002f99565b8060005b8381101562002ca15762002c798262003300565b62002c85888262002bd4565b975062002c928362002fdf565b92505060018101905062002c65565b5085935050505092915050565b600062002cbb8262002fc9565b62002cc781856200300a565b935062002cd48362002fae565b8060005b8381101562002d0b57815162002cef888262002bee565b975062002cfc8362002fec565b92505060018101905062002cd8565b5085935050505092915050565b62002d23816200310d565b82525050565b62002d348162003158565b82525050565b600062002d478262002fd4565b62002d5381856200301b565b935062002d658185602086016200316c565b62002d708162003315565b840191505092915050565b60006101408301600083015162002d96600086018262002e77565b50602083015162002dab602086018262002d29565b50604083015162002dc0604086018262002e77565b50606083015162002dd5606086018262002e77565b50608083015162002dea608086018262002e77565b5060a083015162002dff60a086018262002e77565b5060c083015184820360c086015262002e19828262002d3a565b91505060e083015184820360e086015262002e35828262002d3a565b91505061010083015184820361010086015262002e53828262002d3a565b91505061012083015162002e6c61012086018262002c19565b508091505092915050565b62002e82816200314e565b82525050565b62002e93816200314e565b82525050565b600060208201905062002eb0600083018462002c2a565b92915050565b600060208201905062002ecd600083018462002c08565b92915050565b6000604082019050818103600083015262002eef818562002c3b565b9050818103602083015262002f05818462002cae565b90509392505050565b600060208201905062002f25600083018462002d18565b92915050565b6000602082019050818103600083015262002f47818462002d7b565b905092915050565b600060208201905062002f66600083018462002e88565b92915050565b600060408201905062002f83600083018562002e88565b62002f92602083018462002e88565b9392505050565b60008190508160005260206000209050919050565b6000819050602082019050919050565b600081549050919050565b600081519050919050565b600081519050919050565b6000600182019050919050565b6000602082019050919050565b600082825260208201905092915050565b600082825260208201905092915050565b600082825260208201905092915050565b600062003039826200314e565b915062003046836200314e565b92508262003059576200305862003273565b5b828204905092915050565b600062003071826200314e565b91506200307e836200314e565b9250817fffffffffffffffffffffffffffffffffffffffffffffffffffffffffffffffff0483118215151615620030ba57620030b962003244565b5b828202905092915050565b600073ffffffffffffffffffffffffffffffffffffffff82169050919050565b6000620030f2826200312e565b9050919050565b600062003106826200312e565b9050919050565b60008115159050919050565b6000819050620031298262003333565b919050565b600073ffffffffffffffffffffffffffffffffffffffff82169050919050565b6000819050919050565b6000620031658262003119565b9050919050565b60005b838110156200318c5780820151818401526020810190506200316f565b838111156200319c576000848401525b50505050565b60006002820490506001821680620031bb57607f821691505b60208210811415620031d257620031d1620032d1565b5b50919050565b6000620031ef620031e98362003326565b620030c5565b9050919050565b600062003203826200314e565b91507fffffffffffffffffffffffffffffffffffffffffffffffffffffffffffffffff82141562003239576200323862003244565b5b600182019050919050565b7f4e487b7100000000000000000000000000000000000000000000000000000000600052601160045260246000fd5b7f4e487b7100000000000000000000000000000000000000000000000000000000600052601260045260246000fd5b7f4e487b7100000000000000000000000000000000000000000000000000000000600052602160045260246000fd5b7f4e487b7100000000000000000000000000000000000000000000000000000000600052602260045260246000fd5b60006200330e8254620031d8565b9050919050565b6000601f19601f8301169050919050565b60008160001c9050919050565b60048110620033475762003346620032a2565b5b50565b6200335581620030e5565b81146200336157600080fd5b50565b6200336f816200314e565b81146200337b57600080fd5b5056fe6080604052604051620016e9380380620016e9833981810160405281019062000029919062000523565b805182511462000070576040517f08c379a00000000000000000000000000000000000000000000000000000000081526004016200006790620007c3565b60405180910390fd5b6000825111620000b7576040517f08c379a0000000000000000000000000000000000000000000000000000000008152600401620000ae9062000807565b60405180910390fd5b60005b82518110156200016e576200015883828151811062000102577f4e487b7100000000000000000000000000000000000000000000000000000000600052603260045260246000fd5b602002602001015183838151811062000144577f4e487b7100000000000000000000000000000000000000000000000000000000600052603260045260246000fd5b60200260200101516200017760201b60201c565b8080620001659062000989565b915050620000ba565b50505062000a69565b600073ffffffffffffffffffffffffffffffffffffffff168273ffffffffffffffffffffffffffffffffffffffff161415620001ea576040517f08c379a0000000000000000000000000000000000000000000000000000000008152600401620001e190620007a1565b60405180910390fd5b6000811162000230576040517f08c379a0000000000000000000000000000000000000000000000000000000008152600401620002279062000829565b60405180910390fd5b6000600260008473ffffffffffffffffffffffffffffffffffffffff1673ffffffffffffffffffffffffffffffffffffffff1681526020019081526020016000205414620002b5576040517f08c379a0000000000000000000000000000000000000000000000000000000008152600401620002ac90620007e5565b60405180910390fd5b6004829080600181540180825580915050600190039060005260206000200160009091909190916101000a81548173ffffffffffffffffffffffffffffffffffffffff021916908373ffffffffffffffffffffffffffffffffffffffff16021790555080600260008473ffffffffffffffffffffffffffffffffffffffff1673ffffffffffffffffffffffffffffffffffffffff16815260200190815260200160002081905550806000546200036c9190620008ee565b6000819055507f40c340f65e17194d14ddddb073d3c9f888e3cb52b5aae0c6c7706b4fbc905fac8282604051620003a592919062000774565b60405180910390a15050565b6000620003c8620003c2846200087f565b6200084b565b90508083825260208201905082856020860282011115620003e857600080fd5b60005b858110156200041c57816200040188826200049b565b845260208401935060208301925050600181019050620003eb565b5050509392505050565b60006200043d6200043784620008ae565b6200084b565b905080838252602082019050828560208602820111156200045d57600080fd5b60005b858110156200049157816200047688826200050c565b84526020840193506020830192505060018101905062000460565b5050509392505050565b600081519050620004ac8162000a35565b92915050565b600082601f830112620004c457600080fd5b8151620004d6848260208601620003b1565b91505092915050565b600082601f830112620004f157600080fd5b81516200050384826020860162000426565b91505092915050565b6000815190506200051d8162000a4f565b92915050565b600080604083850312156200053757600080fd5b600083015167ffffffffffffffff8111156200055257600080fd5b6200056085828601620004b2565b925050602083015167ffffffffffffffff8111156200057e57600080fd5b6200058c85828601620004df565b9150509250929050565b620005a1816200094b565b82525050565b6000620005b6602c83620008dd565b91507f5061796d656e7453706c69747465723a206163636f756e74206973207468652060008301527f7a65726f206164647265737300000000000000000000000000000000000000006020830152604082019050919050565b60006200061e603283620008dd565b91507f5061796d656e7453706c69747465723a2070617965657320616e64207368617260008301527f6573206c656e677468206d69736d6174636800000000000000000000000000006020830152604082019050919050565b600062000686602b83620008dd565b91507f5061796d656e7453706c69747465723a206163636f756e7420616c726561647960008301527f20686173207368617265730000000000000000000000000000000000000000006020830152604082019050919050565b6000620006ee601a83620008dd565b91507f5061796d656e7453706c69747465723a206e6f207061796565730000000000006000830152602082019050919050565b600062000730601d83620008dd565b91507f5061796d656e7453706c69747465723a207368617265732061726520300000006000830152602082019050919050565b6200076e816200097f565b82525050565b60006040820190506200078b600083018562000596565b6200079a602083018462000763565b9392505050565b60006020820190508181036000830152620007bc81620005a7565b9050919050565b60006020820190508181036000830152620007de816200060f565b9050919050565b60006020820190508181036000830152620008008162000677565b9050919050565b600060208201905081810360008301526200082281620006df565b9050919050565b60006020820190508181036000830152620008448162000721565b9050919050565b6000604051905081810181811067ffffffffffffffff8211171562000875576200087462000a06565b5b8060405250919050565b600067ffffffffffffffff8211156200089d576200089c62000a06565b5b602082029050602081019050919050565b600067ffffffffffffffff821115620008cc57620008cb62000a06565b5b602082029050602081019050919050565b600082825260208201905092915050565b6000620008fb826200097f565b915062000908836200097f565b9250827fffffffffffffffffffffffffffffffffffffffffffffffffffffffffffffffff0382111562000940576200093f620009d7565b5b828201905092915050565b600062000958826200095f565b9050919050565b600073ffffffffffffffffffffffffffffffffffffffff82169050919050565b6000819050919050565b600062000996826200097f565b91507fffffffffffffffffffffffffffffffffffffffffffffffffffffffffffffffff821415620009cc57620009cb620009d7565b5b600182019050919050565b7f4e487b7100000000000000000000000000000000000000000000000000000000600052601160045260246000fd5b7f4e487b7100000000000000000000000000000000000000000000000000000000600052604160045260246000fd5b62000a40816200094b565b811462000a4c57600080fd5b50565b62000a5a816200097f565b811462000a6657600080fd5b50565b610c708062000a796000396000f3fe6080604052600436106100595760003560e01c806319165587146100a55780633a98ef39146100ce5780638b83209b146100f95780639852595c14610136578063ce7c2ac214610173578063e33b7de3146101b0576100a0565b366100a0577f6ef95f06320e7a25a04a175ca677b7052bdd97131872c2192525a629f51be7706100876101db565b3460405161009692919061091e565b60405180910390a1005b600080fd5b3480156100b157600080fd5b506100cc60048036038101906100c791906106ba565b6101e3565b005b3480156100da57600080fd5b506100e361044b565b6040516100f091906109c7565b60405180910390f35b34801561010557600080fd5b50610120600480360381019061011b91906106e3565b610454565b60405161012d91906108da565b60405180910390f35b34801561014257600080fd5b5061015d60048036038101906101589190610691565b6104c2565b60405161016a91906109c7565b60405180910390f35b34801561017f57600080fd5b5061019a60048036038101906101959190610691565b61050b565b6040516101a791906109c7565b60405180910390f35b3480156101bc57600080fd5b506101c5610554565b6040516101d291906109c7565b60405180910390f35b600033905090565b6000600260008373ffffffffffffffffffffffffffffffffffffffff1673ffffffffffffffffffffffffffffffffffffffff1681526020019081526020016000205411610265576040517f08c379a000000000000000000000000000000000000000000000000000000000815260040161025c90610947565b60405180910390fd5b60006001544761027591906109fe565b90506000600360008473ffffffffffffffffffffffffffffffffffffffff1673ffffffffffffffffffffffffffffffffffffffff16815260200190815260200160002054600054600260008673ffffffffffffffffffffffffffffffffffffffff1673ffffffffffffffffffffffffffffffffffffffff16815260200190815260200160002054846103079190610a85565b6103119190610a54565b61031b9190610adf565b90506000811415610361576040517f08c379a0000000000000000000000000000000000000000000000000000000008152600401610358906109a7565b60405180910390fd5b80600360008573ffffffffffffffffffffffffffffffffffffffff1673ffffffffffffffffffffffffffffffffffffffff168152602001908152602001600020546103ac91906109fe565b600360008573ffffffffffffffffffffffffffffffffffffffff1673ffffffffffffffffffffffffffffffffffffffff16815260200190815260200160002081905550806001546103fd91906109fe565b60018190555061040d838261055e565b7fdf20fd1e76bc69d672e4814fafb2c449bba3a5369d8359adf9e05e6fde87b056838260405161043e9291906108f5565b60405180910390a1505050565b60008054905090565b600060048281548110610490577f4e487b7100000000000000000000000000000000000000000000000000000000600052603260045260246000fd5b9060005260206000200160009054906101000a900473ffffffffffffffffffffffffffffffffffffffff169050919050565b6000600360008373ffffffffffffffffffffffffffffffffffffffff1673ffffffffffffffffffffffffffffffffffffffff168152602001908152602001600020549050919050565b6000600260008373ffffffffffffffffffffffffffffffffffffffff1673ffffffffffffffffffffffffffffffffffffffff168152602001908152602001600020549050919050565b6000600154905090565b804710156105a1576040517f08c379a000000000000000000000000000000000000000000000000000000000815260040161059890610987565b60405180910390fd5b60008273ffffffffffffffffffffffffffffffffffffffff16826040516105c7906108c5565b60006040518083038185875af1925050503d8060008114610604576040519150601f19603f3d011682016040523d82523d6000602084013e610609565b606091505b505090508061064d576040517f08c379a000000000000000000000000000000000000000000000000000000000815260040161064490610967565b60405180910390fd5b505050565b60008135905061066181610bf5565b92915050565b60008135905061067681610c0c565b92915050565b60008135905061068b81610c23565b92915050565b6000602082840312156106a357600080fd5b60006106b184828501610652565b91505092915050565b6000602082840312156106cc57600080fd5b60006106da84828501610667565b91505092915050565b6000602082840312156106f557600080fd5b60006107038482850161067c565b91505092915050565b61071581610b61565b82525050565b61072481610b13565b82525050565b60006107376026836109ed565b91507f5061796d656e7453706c69747465723a206163636f756e7420686173206e6f2060008301527f73686172657300000000000000000000000000000000000000000000000000006020830152604082019050919050565b600061079d603a836109ed565b91507f416464726573733a20756e61626c6520746f2073656e642076616c75652c207260008301527f6563697069656e74206d617920686176652072657665727465640000000000006020830152604082019050919050565b6000610803601d836109ed565b91507f416464726573733a20696e73756666696369656e742062616c616e63650000006000830152602082019050919050565b6000610843602b836109ed565b91507f5061796d656e7453706c69747465723a206163636f756e74206973206e6f742060008301527f647565207061796d656e740000000000000000000000000000000000000000006020830152604082019050919050565b60006108a96000836109e2565b9150600082019050919050565b6108bf81610b57565b82525050565b60006108d08261089c565b9150819050919050565b60006020820190506108ef600083018461071b565b92915050565b600060408201905061090a600083018561070c565b61091760208301846108b6565b9392505050565b6000604082019050610933600083018561071b565b61094060208301846108b6565b9392505050565b600060208201905081810360008301526109608161072a565b9050919050565b6000602082019050818103600083015261098081610790565b9050919050565b600060208201905081810360008301526109a0816107f6565b9050919050565b600060208201905081810360008301526109c081610836565b9050919050565b60006020820190506109dc60008301846108b6565b92915050565b600081905092915050565b600082825260208201905092915050565b6000610a0982610b57565b9150610a1483610b57565b9250827fffffffffffffffffffffffffffffffffffffffffffffffffffffffffffffffff03821115610a4957610a48610b97565b5b828201905092915050565b6000610a5f82610b57565b9150610a6a83610b57565b925082610a7a57610a79610bc6565b5b828204905092915050565b6000610a9082610b57565b9150610a9b83610b57565b9250817fffffffffffffffffffffffffffffffffffffffffffffffffffffffffffffffff0483118215151615610ad457610ad3610b97565b5b828202905092915050565b6000610aea82610b57565b9150610af583610b57565b925082821015610b0857610b07610b97565b5b828203905092915050565b6000610b1e82610b37565b9050919050565b6000610b3082610b37565b9050919050565b600073ffffffffffffffffffffffffffffffffffffffff82169050919050565b6000819050919050565b6000610b6c82610b73565b9050919050565b6000610b7e82610b85565b9050919050565b6000610b9082610b37565b9050919050565b7f4e487b7100000000000000000000000000000000000000000000000000000000600052601160045260246000fd5b7f4e487b7100000000000000000000000000000000000000000000000000000000600052601260045260246000fd5b610bfe81610b13565b8114610c0957600080fd5b50565b610c1581610b25565b8114610c2057600080fd5b50565b610c2c81610b57565b8114610c3757600080fd5b5056fea26469706673582212203c68ca274da16f753196acdb291e3e5508ccd1833dfa81888dc16af3058ed59d64736f6c63430008000033a26469706673582212209a026b086043b03c12919e5695dbba2ca49b447ff824f04c0486b225b982c63f64736f6c63430008000033",
  "immutableReferences": {},
  "source": "// SPDX-License-Identifier: MIT\n pragma solidity ^0.8.0;\n\nimport \"../roles/AdminsManager.sol\";\n\ncontract CrowdDropCore is AdminsManager {\n    // Set in case the core contract is broken and an upgrade is required\n    address public newContractAddress;\n\n    /// @notice Creates the main CrowdDrop smart contract instance.\n    constructor () {\n        // Starts paused.\n        paused = true;\n\n        // the creator of the contract is the initial CEO\n        ceoAddress = msg.sender;\n\n        // the creator of the contract is also the initial COO\n        cooAddress = msg.sender;\n\n    }\n\n    /// @dev Used to mark the smart contract as upgraded, in case there is a serious\n    ///  breaking bug. This method does nothing but keep track of the new contract and\n    ///  emit a message indicating that the new address is set. It's up to clients of this\n    ///  contract to update to the new contract address in that case. (This contract will\n    ///  be paused indefinitely if such an upgrade takes place.)\n    /// @param _v2Address new address\n    function setNewAddress(address _v2Address) external onlyCEO whenPaused {\n        // See README.md for updgrade plan\n        newContractAddress = _v2Address;\n        ContractUpgrade(_v2Address);\n    }\n}\n",
  "sourcePath": "/Users/jim/Git-Projects/CrowdDrop/eth/contracts/core/CrowdDropCore.sol",
  "compiler": {
    "name": "solc",
    "version": "0.8.0+commit.c7dfd78e.Emscripten.clang"
  },
  "schemaVersion": "3.4.1",
  "updatedAt": "2021-07-14T19:36:43.503Z",
  "devdoc": {
    "kind": "dev",
    "methods": {
      "pause()": {
        "details": "Called by any \"C-level\" role to pause the contract. Used only when  a bug or exploit is detected and we need to limit damage."
      },
      "setCEO(address)": {
        "details": "Assigns a new address to act as the CEO. Only available to the current CEO.",
        "params": {
          "_newCEO": "The address of the new CEO"
        }
      },
      "setCFO(address)": {
        "details": "Assigns a new address to act as the CFO. Only available to the current CEO.",
        "params": {
          "_newCFO": "The address of the new CFO"
        }
      },
      "setCOO(address)": {
        "details": "Assigns a new address to act as the COO. Only available to the current CEO.",
        "params": {
          "_newCOO": "The address of the new COO"
        }
      },
      "setNewAddress(address)": {
        "details": "Used to mark the smart contract as upgraded, in case there is a serious  breaking bug. This method does nothing but keep track of the new contract and  emit a message indicating that the new address is set. It's up to clients of this  contract to update to the new contract address in that case. (This contract will  be paused indefinitely if such an upgrade takes place.)",
        "params": {
          "_v2Address": "new address"
        }
      },
      "unpause()": {
        "details": "Unpauses the smart contract. Can only be called by the CEO, since  one reason we may pause the contract is when CFO or COO accounts are  compromised."
      }
    },
    "version": 1
  },
  "userdoc": {
    "kind": "user",
    "methods": {
      "constructor": {
        "notice": "Creates the main CrowdDrop smart contract instance."
      },
      "unpause()": {
        "notice": "This is public rather than external so it can be called by  derived contracts."
      }
    },
    "version": 1
  }
}