{
  "contractName": "CrowdDropBase",
  "abi": [
    {
      "anonymous": false,
      "inputs": [
        {
          "indexed": false,
          "internalType": "address",
          "name": "newContract",
          "type": "address"
        }
      ],
      "name": "ContractUpgrade",
      "type": "event"
    },
    {
      "anonymous": false,
      "inputs": [],
      "name": "EventClose",
      "type": "event"
    },
    {
      "anonymous": false,
      "inputs": [],
      "name": "RegistrationOpen",
      "type": "event"
    },
    {
      "anonymous": false,
      "inputs": [
        {
          "indexed": false,
          "internalType": "address",
          "name": "from",
          "type": "address"
        },
        {
          "indexed": false,
          "internalType": "address",
          "name": "to",
          "type": "address"
        }
      ],
      "name": "Transfer",
      "type": "event"
    },
    {
      "anonymous": false,
      "inputs": [],
      "name": "WinningsClaimingOpen",
      "type": "event"
    },
    {
      "inputs": [],
      "name": "ceoAddress",
      "outputs": [
        {
          "internalType": "address",
          "name": "",
          "type": "address"
        }
      ],
      "stateMutability": "view",
      "type": "function"
    },
    {
      "inputs": [],
      "name": "cfoAddress",
      "outputs": [
        {
          "internalType": "address",
          "name": "",
          "type": "address"
        }
      ],
      "stateMutability": "view",
      "type": "function"
    },
    {
      "inputs": [],
      "name": "cooAddress",
      "outputs": [
        {
          "internalType": "address",
          "name": "",
          "type": "address"
        }
      ],
      "stateMutability": "view",
      "type": "function"
    },
    {
      "inputs": [],
      "name": "pause",
      "outputs": [],
      "stateMutability": "nonpayable",
      "type": "function"
    },
    {
      "inputs": [],
      "name": "paused",
      "outputs": [
        {
          "internalType": "bool",
          "name": "",
          "type": "bool"
        }
      ],
      "stateMutability": "view",
      "type": "function"
    },
    {
      "inputs": [
        {
          "internalType": "address",
          "name": "_newCEO",
          "type": "address"
        }
      ],
      "name": "setCEO",
      "outputs": [],
      "stateMutability": "nonpayable",
      "type": "function"
    },
    {
      "inputs": [
        {
          "internalType": "address",
          "name": "_newCFO",
          "type": "address"
        }
      ],
      "name": "setCFO",
      "outputs": [],
      "stateMutability": "nonpayable",
      "type": "function"
    },
    {
      "inputs": [
        {
          "internalType": "address",
          "name": "_newCOO",
          "type": "address"
        }
      ],
      "name": "setCOO",
      "outputs": [],
      "stateMutability": "nonpayable",
      "type": "function"
    },
    {
      "inputs": [],
      "name": "unpause",
      "outputs": [],
      "stateMutability": "nonpayable",
      "type": "function"
    }
  ],
  "bytecode": "0x60806040526000600260146101000a81548160ff021916908315150217905550600560035534801561003057600080fd5b50610766806100406000396000f3fe608060405234801561001057600080fd5b50600436106100935760003560e01c80633f4ba83a116100665780633f4ba83a1461010c5780634e0a3379146101165780635c975abb146101325780638456cb5914610150578063b047fb501461015a57610093565b80630519ce79146100985780630a0f8168146100b657806327d7874c146100d45780632ba73c15146100f0575b600080fd5b6100a0610178565b6040516100ad91906106a5565b60405180910390f35b6100be61019e565b6040516100cb91906106a5565b60405180910390f35b6100ee60048036038101906100e9919061065e565b6101c2565b005b61010a6004803603810190610105919061065e565b610297565b005b61011461036d565b005b610130600480360381019061012b919061065e565b6103fb565b005b61013a6104d1565b60405161014791906106c0565b60405180910390f35b6101586104e4565b005b610162610623565b60405161016f91906106a5565b60405180910390f35b600160009054906101000a900473ffffffffffffffffffffffffffffffffffffffff1681565b60008054906101000a900473ffffffffffffffffffffffffffffffffffffffff1681565b60008054906101000a900473ffffffffffffffffffffffffffffffffffffffff1673ffffffffffffffffffffffffffffffffffffffff163373ffffffffffffffffffffffffffffffffffffffff161461021a57600080fd5b600073ffffffffffffffffffffffffffffffffffffffff168173ffffffffffffffffffffffffffffffffffffffff16141561025457600080fd5b806000806101000a81548173ffffffffffffffffffffffffffffffffffffffff021916908373ffffffffffffffffffffffffffffffffffffffff16021790555050565b60008054906101000a900473ffffffffffffffffffffffffffffffffffffffff1673ffffffffffffffffffffffffffffffffffffffff163373ffffffffffffffffffffffffffffffffffffffff16146102ef57600080fd5b600073ffffffffffffffffffffffffffffffffffffffff168173ffffffffffffffffffffffffffffffffffffffff16141561032957600080fd5b80600260006101000a81548173ffffffffffffffffffffffffffffffffffffffff021916908373ffffffffffffffffffffffffffffffffffffffff16021790555050565b60008054906101000a900473ffffffffffffffffffffffffffffffffffffffff1673ffffffffffffffffffffffffffffffffffffffff163373ffffffffffffffffffffffffffffffffffffffff16146103c557600080fd5b600260149054906101000a900460ff166103de57600080fd5b6000600260146101000a81548160ff021916908315150217905550565b60008054906101000a900473ffffffffffffffffffffffffffffffffffffffff1673ffffffffffffffffffffffffffffffffffffffff163373ffffffffffffffffffffffffffffffffffffffff161461045357600080fd5b600073ffffffffffffffffffffffffffffffffffffffff168173ffffffffffffffffffffffffffffffffffffffff16141561048d57600080fd5b80600160006101000a81548173ffffffffffffffffffffffffffffffffffffffff021916908373ffffffffffffffffffffffffffffffffffffffff16021790555050565b600260149054906101000a900460ff1681565b600260009054906101000a900473ffffffffffffffffffffffffffffffffffffffff1673ffffffffffffffffffffffffffffffffffffffff163373ffffffffffffffffffffffffffffffffffffffff16148061058b575060008054906101000a900473ffffffffffffffffffffffffffffffffffffffff1673ffffffffffffffffffffffffffffffffffffffff163373ffffffffffffffffffffffffffffffffffffffff16145b806105e35750600160009054906101000a900473ffffffffffffffffffffffffffffffffffffffff1673ffffffffffffffffffffffffffffffffffffffff163373ffffffffffffffffffffffffffffffffffffffff16145b6105ec57600080fd5b600260149054906101000a900460ff161561060657600080fd5b6001600260146101000a81548160ff021916908315150217905550565b600260009054906101000a900473ffffffffffffffffffffffffffffffffffffffff1681565b60008135905061065881610719565b92915050565b60006020828403121561067057600080fd5b600061067e84828501610649565b91505092915050565b610690816106db565b82525050565b61069f816106ed565b82525050565b60006020820190506106ba6000830184610687565b92915050565b60006020820190506106d56000830184610696565b92915050565b60006106e6826106f9565b9050919050565b60008115159050919050565b600073ffffffffffffffffffffffffffffffffffffffff82169050919050565b610722816106db565b811461072d57600080fd5b5056fea264697066735822122025702ea25ecddcbb179518c0be5be53d45da3d71952a5de59a9381bf973ce76964736f6c63430008000033",
  "immutableReferences": {},
  "source": "// SPDX-License-Identifier: MIT\npragma solidity ^0.8.0;\n\nimport \"../roles/Roles.sol\";\nimport \"../roles/ExecutivesAccessControl.sol\";\nimport \"@openzeppelin/contracts/finance/PaymentSplitter.sol\";\n\ncontract CrowdDropBase is ExecutivesAccessControl {\n    /*** EVENTS ***/\n\n    /// @dev The RegistrationOpen event is fired whenever a new event starts and users can begin restering.\n    event RegistrationOpen();\n\n    /// @dev The RegistrationOpen event is fired whenever a new event starts and users can begin restering.\n    //    After this event fires users can no longer register, and users who have registered can claim winnings.\n    event WinningsClaimingOpen();\n\n    /// @dev The EventClose event is fired whenever an event closes. After this event is fired users can no\n    //    longer claim winnings\n    event EventClose();\n\n    /// @dev Transfer event as defined in current draft of ERC721. Emitted every some Eth is transferred\n\n    event Transfer(address from, address to); // Assumed Eth\n\n    // TODO - (in later, more than just eth contracts as pass tokenId)\n    // event Transfer(address from, address to, uint tokenId);\n\n    /*** DATA TYPES ***/\n\n    /// @dev The main Kitty struct. Every cat in CryptoKitties is represented by a copy\n    ///  of this structure, so great care was taken to ensure that it fits neatly into\n    ///  exactly two 256-bit words. Note that the order of the members in this structure\n    ///  is important because of the byte-packing rules used by Ethereum.\n    ///  Ref: http://solidity.readthedocs.io/en/develop/miscellaneous.html\n\n    // TODO - ^ think harder about all that byte-packing junk... \n\n    enum EventState {\n        CREATED,\n        REGISTRATION,\n        CLAIM_WINNINGS,\n        ENDED\n    }\n\n    uint devCutPercentage = 5;\n\n    struct CrowdDropEvent {\n        // The IRL organization that controls their own airdrops.\n        // Each group can only be running 1 event at a time.\n        uint groupId;\n        // Event goes through a linear flow of states, finite state machine.\n        EventState currentState;\n        // The timestamp from the block when this event started.\n        uint startTime;\n        // The timestamp from the block when registration for this event ended.\n        uint registrationEndTime;\n        // The timestamp from the block when this event ended.\n        uint endTime;\n        // The number of eligibleRecipients who have registered.\n        uint registeredRecipientsCount;\n        // Data about the sponsor info (address is stored in Roles)\n        string sponsorName;\n        string sponsorImageUrl;\n        string sponsorLinkToUrl;\n        address currentContributor;\n    }\n\n    // ALL events happening now or in the future.\n    // Key is the groupId\n    mapping(uint => CrowdDropEvent) currentEvents;\n\n    // ALL events that have already happened.\n    // Key is the groupId\n    mapping(uint => CrowdDropEvent[]) pastEvents;\n\n    // Holds ALL admins for all groups\n    // groupId => Role\n    mapping(uint => mapping(address => bool)) admins;\n\n    // Holds ALL contributors for all groups\n    // groupId => Role\n    mapping(uint => mapping(address => bool)) contributors;\n\n    // Holds ALL eligibleRecipients for all groups\n    // groupId => Role\n    mapping(uint => mapping(address => bool)) eligibleRecipients;\n\n    // Holds ALL registeredRecipients for all groups\n    // groupId => Role\n    mapping(uint => mapping(address => bool)) registeredRecipients;\n\n    // Holds ALL registeredRecipients in an array (for PaymentSplitter)\n    // groupId => address[]\n    mapping(uint => address[]) registeredRecipientsArray;\n\n    // Keeping track of winnings for all groups\n    mapping(uint => PaymentSplitter) pot;\n\n    // Any C-level can fix how many seconds per blocks are currently observed.\n    // function setSecondsPerBlock(uint secs) external onlyCLevel {\n    //     require(secs < cooldowns[0]);\n    //     secondsPerBlock = secs;\n    // }\n}\n",
  "sourcePath": "/Users/jim/Git-Projects/CrowdDrop/eth/contracts/core/CrowdDropBase.sol",
  "compiler": {
    "name": "solc",
    "version": "0.8.0+commit.c7dfd78e.Emscripten.clang"
  },
  "schemaVersion": "3.4.1",
  "updatedAt": "2021-07-14T19:36:43.501Z",
  "devdoc": {
    "events": {
      "EventClose()": {
        "details": "The EventClose event is fired whenever an event closes. After this event is fired users can no"
      },
      "RegistrationOpen()": {
        "details": "The RegistrationOpen event is fired whenever a new event starts and users can begin restering."
      },
      "Transfer(address,address)": {
        "details": "Transfer event as defined in current draft of ERC721. Emitted every some Eth is transferred"
      },
      "WinningsClaimingOpen()": {
        "details": "The RegistrationOpen event is fired whenever a new event starts and users can begin restering."
      }
    },
    "kind": "dev",
    "methods": {
      "pause()": {
        "details": "Called by any \"C-level\" role to pause the contract. Used only when  a bug or exploit is detected and we need to limit damage."
      },
      "setCEO(address)": {
        "details": "Assigns a new address to act as the CEO. Only available to the current CEO.",
        "params": {
          "_newCEO": "The address of the new CEO"
        }
      },
      "setCFO(address)": {
        "details": "Assigns a new address to act as the CFO. Only available to the current CEO.",
        "params": {
          "_newCFO": "The address of the new CFO"
        }
      },
      "setCOO(address)": {
        "details": "Assigns a new address to act as the COO. Only available to the current CEO.",
        "params": {
          "_newCOO": "The address of the new COO"
        }
      },
      "unpause()": {
        "details": "Unpauses the smart contract. Can only be called by the CEO, since  one reason we may pause the contract is when CFO or COO accounts are  compromised."
      }
    },
    "version": 1
  },
  "userdoc": {
    "kind": "user",
    "methods": {
      "unpause()": {
        "notice": "This is public rather than external so it can be called by  derived contracts."
      }
    },
    "version": 1
  }
}